{
  "contractName": "EgMarket",
  "abi": [
    {
      "inputs": [],
      "name": "mainProvider",
      "outputs": [
        {
          "internalType": "address",
          "name": "",
          "type": "address"
        }
      ],
      "stateMutability": "view",
      "type": "function",
      "constant": true
    },
    {
      "inputs": [
        {
          "internalType": "uint256",
          "name": "",
          "type": "uint256"
        }
      ],
      "name": "offers",
      "outputs": [
        {
          "internalType": "address",
          "name": "owner",
          "type": "address"
        },
        {
          "internalType": "uint256",
          "name": "qty",
          "type": "uint256"
        },
        {
          "internalType": "uint256",
          "name": "price",
          "type": "uint256"
        }
      ],
      "stateMutability": "view",
      "type": "function",
      "constant": true
    },
    {
      "inputs": [
        {
          "internalType": "uint256",
          "name": "",
          "type": "uint256"
        }
      ],
      "name": "requests",
      "outputs": [
        {
          "internalType": "address",
          "name": "owner",
          "type": "address"
        },
        {
          "internalType": "uint256",
          "name": "qty",
          "type": "uint256"
        }
      ],
      "stateMutability": "view",
      "type": "function",
      "constant": true
    },
    {
      "inputs": [
        {
          "internalType": "address",
          "name": "_mainProvider",
          "type": "address"
        }
      ],
      "name": "setMainProvider",
      "outputs": [],
      "stateMutability": "nonpayable",
      "type": "function"
    },
    {
      "inputs": [],
      "name": "getMainProvider",
      "outputs": [
        {
          "internalType": "address",
          "name": "",
          "type": "address"
        }
      ],
      "stateMutability": "view",
      "type": "function",
      "constant": true
    },
    {
      "inputs": [],
      "name": "getRequests",
      "outputs": [
        {
          "components": [
            {
              "internalType": "address",
              "name": "owner",
              "type": "address"
            },
            {
              "internalType": "uint256",
              "name": "qty",
              "type": "uint256"
            }
          ],
          "internalType": "struct EgMarket.Request[]",
          "name": "",
          "type": "tuple[]"
        }
      ],
      "stateMutability": "view",
      "type": "function",
      "constant": true
    },
    {
      "inputs": [],
      "name": "getOffers",
      "outputs": [
        {
          "components": [
            {
              "internalType": "address",
              "name": "owner",
              "type": "address"
            },
            {
              "internalType": "uint256",
              "name": "qty",
              "type": "uint256"
            },
            {
              "internalType": "uint256",
              "name": "price",
              "type": "uint256"
            }
          ],
          "internalType": "struct EgMarket.Offer[]",
          "name": "",
          "type": "tuple[]"
        }
      ],
      "stateMutability": "view",
      "type": "function",
      "constant": true
    },
    {
      "inputs": [
        {
          "internalType": "uint256",
          "name": "_qty",
          "type": "uint256"
        },
        {
          "internalType": "uint256",
          "name": "_price",
          "type": "uint256"
        }
      ],
      "name": "placeOffer",
      "outputs": [],
      "stateMutability": "nonpayable",
      "type": "function"
    },
    {
      "inputs": [
        {
          "internalType": "uint256",
          "name": "_qty",
          "type": "uint256"
        }
      ],
      "name": "placeRequest",
      "outputs": [],
      "stateMutability": "nonpayable",
      "type": "function"
    },
    {
      "inputs": [
        {
          "internalType": "uint256",
          "name": "index",
          "type": "uint256"
        }
      ],
      "name": "removeRequest",
      "outputs": [],
      "stateMutability": "nonpayable",
      "type": "function"
    },
    {
      "inputs": [
        {
          "internalType": "uint256",
          "name": "index",
          "type": "uint256"
        }
      ],
      "name": "removeOffer",
      "outputs": [],
      "stateMutability": "nonpayable",
      "type": "function"
    }
  ],
  "bytecode": "0x608060405234801561001057600080fd5b506114d9806100206000396000f3fe608060405234801561001057600080fd5b50600436106100a95760003560e01c80638813ce12116100715780638813ce12146101515780638a72ea6a1461016f57806395a0f9c7146101a1578063a95902b2146101bd578063c32bf7e1146101d9578063e2cf6b39146101f7576100a9565b80633ee992ee146100ae57806344786fc3146100cc57806351a1fcb3146100e8578063813ec0641461010457806381d12c5814610120575b600080fd5b6100b6610215565b6040516100c39190610ebe565b60405180910390f35b6100e660048036038101906100e19190610f11565b6102de565b005b61010260048036038101906100fd9190610f11565b6104f3565b005b61011e60048036038101906101199190610f6a565b6106ca565b005b61013a60048036038101906101359190610f11565b61070d565b604051610148929190610fb5565b60405180910390f35b610159610761565b60405161016691906110bc565b60405180910390f35b61018960048036038101906101849190610f11565b610820565b604051610198939291906110de565b60405180910390f35b6101bb60048036038101906101b69190610f11565b61087a565b005b6101d760048036038101906101d29190611115565b610aa3565b005b6101e1610c01565b6040516101ee9190611155565b60405180910390f35b6101ff610c2a565b60405161020c9190611155565b60405180910390f35b60606002805480602002602001604051908101604052809291908181526020016000905b828210156102d557838290600052602060002090600302016040518060600160405290816000820160009054906101000a900473ffffffffffffffffffffffffffffffffffffffff1673ffffffffffffffffffffffffffffffffffffffff1673ffffffffffffffffffffffffffffffffffffffff1681526020016001820154815260200160028201548152505081526020019060010190610239565b50505050905090565b61031c6040518060400160405280601081526020017f496e2072656d6f76655265717565737400000000000000000000000000000000815250610c4e565b6001805490508110610363576040517f08c379a000000000000000000000000000000000000000000000000000000000815260040161035a906111cd565b60405180910390fd5b60008190505b6001808054905061037a919061121c565b811015610457576001808261038f9190611250565b815481106103a05761039f611284565b5b9060005260206000209060020201600182815481106103c2576103c1611284565b5b90600052602060002090600202016000820160009054906101000a900473ffffffffffffffffffffffffffffffffffffffff168160000160006101000a81548173ffffffffffffffffffffffffffffffffffffffff021916908373ffffffffffffffffffffffffffffffffffffffff16021790555060018201548160010155905050808061044f906112b3565b915050610369565b50600180548061046a576104696112fb565b5b6001900381819060005260206000209060020201600080820160006101000a81549073ffffffffffffffffffffffffffffffffffffffff02191690556001820160009055505090556104f06040518060400160405280601181526020017f4f75742072656d6f766552657175657374000000000000000000000000000000815250610c4e565b50565b6105316040518060400160405280600f81526020017f496e20706c616365526571756573740000000000000000000000000000000000815250610c4e565b60008054906101000a900473ffffffffffffffffffffffffffffffffffffffff1673ffffffffffffffffffffffffffffffffffffffff163373ffffffffffffffffffffffffffffffffffffffff16036105bf576040517f08c379a00000000000000000000000000000000000000000000000000000000081526004016105b690611376565b60405180910390fd5b6105c7610d0c565b33816000019073ffffffffffffffffffffffffffffffffffffffff16908173ffffffffffffffffffffffffffffffffffffffff168152505081816020018181525050600181908060018154018082558091505060019003906000526020600020906002020160009091909190915060008201518160000160006101000a81548173ffffffffffffffffffffffffffffffffffffffff021916908373ffffffffffffffffffffffffffffffffffffffff1602179055506020820151816001015550506106c66040518060400160405280601081526020017f4f757420706c6163655265717565737400000000000000000000000000000000815250610c4e565b5050565b806000806101000a81548173ffffffffffffffffffffffffffffffffffffffff021916908373ffffffffffffffffffffffffffffffffffffffff16021790555050565b6001818154811061071d57600080fd5b90600052602060002090600202016000915090508060000160009054906101000a900473ffffffffffffffffffffffffffffffffffffffff16908060010154905082565b60606001805480602002602001604051908101604052809291908181526020016000905b8282101561081757838290600052602060002090600202016040518060400160405290816000820160009054906101000a900473ffffffffffffffffffffffffffffffffffffffff1673ffffffffffffffffffffffffffffffffffffffff1673ffffffffffffffffffffffffffffffffffffffff16815260200160018201548152505081526020019060010190610785565b50505050905090565b6002818154811061083057600080fd5b90600052602060002090600302016000915090508060000160009054906101000a900473ffffffffffffffffffffffffffffffffffffffff16908060010154908060020154905083565b6108b86040518060400160405280600e81526020017f496e2072656d6f76654f66666572000000000000000000000000000000000000815250610c4e565b60028054905081106108ff576040517f08c379a00000000000000000000000000000000000000000000000000000000081526004016108f6906113e2565b60405180910390fd5b60008190505b6001600280549050610917919061121c565b8110156109ff57600260018261092d9190611250565b8154811061093e5761093d611284565b5b9060005260206000209060030201600282815481106109605761095f611284565b5b90600052602060002090600302016000820160009054906101000a900473ffffffffffffffffffffffffffffffffffffffff168160000160006101000a81548173ffffffffffffffffffffffffffffffffffffffff021916908373ffffffffffffffffffffffffffffffffffffffff160217905550600182015481600101556002820154816002015590505080806109f7906112b3565b915050610905565b506002805480610a1257610a116112fb565b5b6001900381819060005260206000209060030201600080820160006101000a81549073ffffffffffffffffffffffffffffffffffffffff02191690556001820160009055600282016000905550509055610aa06040518060400160405280600f81526020017f4f75742072656d6f76654f666665720000000000000000000000000000000000815250610c4e565b50565b610ae16040518060400160405280600d81526020017f496e20706c6163654f6666657200000000000000000000000000000000000000815250610c4e565b610ae9610d3c565b33816000019073ffffffffffffffffffffffffffffffffffffffff16908173ffffffffffffffffffffffffffffffffffffffff16815250508281602001818152505081816040018181525050600281908060018154018082558091505060019003906000526020600020906003020160009091909190915060008201518160000160006101000a81548173ffffffffffffffffffffffffffffffffffffffff021916908373ffffffffffffffffffffffffffffffffffffffff16021790555060208201518160010155604082015181600201555050610bfc6040518060400160405280600e81526020017f4f757420706c6163654f66666572000000000000000000000000000000000000815250610c4e565b505050565b60008060009054906101000a900473ffffffffffffffffffffffffffffffffffffffff16905090565b60008054906101000a900473ffffffffffffffffffffffffffffffffffffffff1681565b610ce481604051602401610c629190611481565b6040516020818303038152906040527f41304fac000000000000000000000000000000000000000000000000000000007bffffffffffffffffffffffffffffffffffffffffffffffffffffffff19166020820180517bffffffffffffffffffffffffffffffffffffffffffffffffffffffff8381831617835250505050610ce7565b50565b60006a636f6e736f6c652e6c6f6790508151602083016000808383865afa5050505050565b6040518060400160405280600073ffffffffffffffffffffffffffffffffffffffff168152602001600081525090565b6040518060600160405280600073ffffffffffffffffffffffffffffffffffffffff16815260200160008152602001600081525090565b600081519050919050565b600082825260208201905092915050565b6000819050602082019050919050565b600073ffffffffffffffffffffffffffffffffffffffff82169050919050565b6000610dca82610d9f565b9050919050565b610dda81610dbf565b82525050565b6000819050919050565b610df381610de0565b82525050565b606082016000820151610e0f6000850182610dd1565b506020820151610e226020850182610dea565b506040820151610e356040850182610dea565b50505050565b6000610e478383610df9565b60608301905092915050565b6000602082019050919050565b6000610e6b82610d73565b610e758185610d7e565b9350610e8083610d8f565b8060005b83811015610eb1578151610e988882610e3b565b9750610ea383610e53565b925050600181019050610e84565b5085935050505092915050565b60006020820190508181036000830152610ed88184610e60565b905092915050565b600080fd5b610eee81610de0565b8114610ef957600080fd5b50565b600081359050610f0b81610ee5565b92915050565b600060208284031215610f2757610f26610ee0565b5b6000610f3584828501610efc565b91505092915050565b610f4781610dbf565b8114610f5257600080fd5b50565b600081359050610f6481610f3e565b92915050565b600060208284031215610f8057610f7f610ee0565b5b6000610f8e84828501610f55565b91505092915050565b610fa081610dbf565b82525050565b610faf81610de0565b82525050565b6000604082019050610fca6000830185610f97565b610fd76020830184610fa6565b9392505050565b600081519050919050565b600082825260208201905092915050565b6000819050602082019050919050565b6040820160008201516110206000850182610dd1565b5060208201516110336020850182610dea565b50505050565b6000611045838361100a565b60408301905092915050565b6000602082019050919050565b600061106982610fde565b6110738185610fe9565b935061107e83610ffa565b8060005b838110156110af5781516110968882611039565b97506110a183611051565b925050600181019050611082565b5085935050505092915050565b600060208201905081810360008301526110d6818461105e565b905092915050565b60006060820190506110f36000830186610f97565b6111006020830185610fa6565b61110d6040830184610fa6565b949350505050565b6000806040838503121561112c5761112b610ee0565b5b600061113a85828601610efc565b925050602061114b85828601610efc565b9150509250929050565b600060208201905061116a6000830184610f97565b92915050565b600082825260208201905092915050565b7f27526571756573742720696e646578206f7574206f662072616e676500000000600082015250565b60006111b7601c83611170565b91506111c282611181565b602082019050919050565b600060208201905081810360008301526111e6816111aa565b9050919050565b7f4e487b7100000000000000000000000000000000000000000000000000000000600052601160045260246000fd5b600061122782610de0565b915061123283610de0565b925082820390508181111561124a576112496111ed565b5b92915050565b600061125b82610de0565b915061126683610de0565b925082820190508082111561127e5761127d6111ed565b5b92915050565b7f4e487b7100000000000000000000000000000000000000000000000000000000600052603260045260246000fd5b60006112be82610de0565b91507fffffffffffffffffffffffffffffffffffffffffffffffffffffffffffffffff82036112f0576112ef6111ed565b5b600182019050919050565b7f4e487b7100000000000000000000000000000000000000000000000000000000600052603160045260246000fd5b7f4d61696e2050726f76696465722043616e27742041736b000000000000000000600082015250565b6000611360601783611170565b915061136b8261132a565b602082019050919050565b6000602082019050818103600083015261138f81611353565b9050919050565b7f274f666665722720696e646578206f7574206f662072616e6765000000000000600082015250565b60006113cc601a83611170565b91506113d782611396565b602082019050919050565b600060208201905081810360008301526113fb816113bf565b9050919050565b600081519050919050565b60005b8381101561142b578082015181840152602081019050611410565b60008484015250505050565b6000601f19601f8301169050919050565b600061145382611402565b61145d8185611170565b935061146d81856020860161140d565b61147681611437565b840191505092915050565b6000602082019050818103600083015261149b8184611448565b90509291505056fea26469706673582212207bc69b2dcd90c4397ed263462dcc5dca3696e3b1b33853d4eb50298ec0a0127264736f6c63430008100033",
  "immutableReferences": {},
  "source": "// SPDX-License-Identifier: GPL-3.0\r\npragma solidity >=0.8.0 <0.9.0;\r\nimport \"truffle/console.sol\";\r\n\r\ncontract EgMarket {\r\n    struct Request {\r\n        address owner;\r\n        uint qty;\r\n    }\r\n\r\n    struct Offer {\r\n        address owner;\r\n        uint qty;\r\n        uint price;\r\n    }\r\n\r\n    address public mainProvider;\r\n    Request[] public requests;\r\n    Offer[] public offers;\r\n\r\n    function setMainProvider(address _mainProvider) public {\r\n        mainProvider = _mainProvider;\r\n    }\r\n\r\n    function getMainProvider() public view returns (address) {\r\n        return mainProvider;\r\n    }\r\n\r\n    function getRequests() public view returns (Request[] memory) {\r\n        return requests;\r\n    }\r\n\r\n    function getOffers() public view returns (Offer[] memory) {\r\n        return offers;\r\n    }\r\n\r\n    function placeOffer(uint _qty, uint _price) public {\r\n        console.log(\"In placeOffer\");\r\n        Offer memory o;\r\n        o.owner = msg.sender;\r\n        o.qty = _qty;\r\n        o.price = _price;\r\n        offers.push(o);\r\n        console.log(\"Out placeOffer\");\r\n    }\r\n\r\n    function placeRequest(uint _qty) public {\r\n        console.log(\"In placeRequest\");\r\n        require(msg.sender != mainProvider, \"Main Provider Can't Ask\");\r\n        Request memory r;\r\n        r.owner = msg.sender;\r\n        r.qty = _qty;\r\n        requests.push(r);\r\n        console.log(\"Out placeRequest\");\r\n    }\r\n\r\n    // remove offer, request\r\n\r\n    function removeRequest(uint index) public {\r\n        console.log(\"In removeRequest\");\r\n        require(index < requests.length, \"'Request' index out of range\");\r\n        \r\n        for (uint i = index; i<requests.length-1; i++){\r\n            requests[i] = requests[i+1];\r\n        }\r\n        // delete requests[requests.length - 1];\r\n        requests.pop();\r\n        console.log(\"Out removeRequest\");\r\n    }\r\n\r\n    function removeOffer(uint index) public {\r\n        console.log(\"In removeOffer\");\r\n        require(index < offers.length, \"'Offer' index out of range\");\r\n        \r\n        for (uint i = index; i<offers.length-1; i++){\r\n            offers[i] = offers[i+1];\r\n        }\r\n        // delete offers[offers.length - 1];\r\n        offers.pop();\r\n        console.log(\"Out removeOffer\");\r\n    }\r\n}\r\n",
  "sourcePath": "/mnt/e/Dataarea/shrutiman_20.01.2022_e/SP Instt of Tech/SEM7/BCT_oe/bctprj/trialbct/contracts/Energy_market.sol",
  "compiler": {
    "name": "solc",
    "version": "0.8.16+commit.07a7930e.Emscripten.clang"
  },
  "schemaVersion": "3.4.16",
  "updatedAt": "2023-12-06T06:44:43.334Z",
  "networkType": "ethereum",
  "devdoc": {
    "kind": "dev",
    "methods": {},
    "version": 1
  },
  "userdoc": {
    "kind": "user",
    "methods": {},
    "version": 1
  }
}