{
  "contractName": "EgMarket",
  "abi": [
    {
      "inputs": [],
      "name": "mainProvider",
      "outputs": [
        {
          "internalType": "address",
          "name": "",
          "type": "address"
        }
      ],
      "stateMutability": "view",
      "type": "function"
    },
    {
      "inputs": [
        {
          "internalType": "uint256",
          "name": "",
          "type": "uint256"
        }
      ],
      "name": "offers",
      "outputs": [
        {
          "internalType": "address",
          "name": "owner",
          "type": "address"
        },
        {
          "internalType": "uint256",
          "name": "qty",
          "type": "uint256"
        },
        {
          "internalType": "uint256",
          "name": "price",
          "type": "uint256"
        },
        {
          "internalType": "address",
          "name": "recipient",
          "type": "address"
        },
        {
          "internalType": "uint256",
          "name": "rec_req_id",
          "type": "uint256"
        },
        {
          "internalType": "bool",
          "name": "isSet",
          "type": "bool"
        }
      ],
      "stateMutability": "view",
      "type": "function"
    },
    {
      "inputs": [
        {
          "internalType": "uint256",
          "name": "",
          "type": "uint256"
        }
      ],
      "name": "requests",
      "outputs": [
        {
          "internalType": "address",
          "name": "owner",
          "type": "address"
        },
        {
          "internalType": "uint256",
          "name": "id",
          "type": "uint256"
        },
        {
          "internalType": "uint256",
          "name": "qty",
          "type": "uint256"
        }
      ],
      "stateMutability": "view",
      "type": "function"
    },
    {
      "inputs": [
        {
          "internalType": "address",
          "name": "_mainProvider",
          "type": "address"
        }
      ],
      "name": "setMainProvider",
      "outputs": [],
      "stateMutability": "nonpayable",
      "type": "function"
    },
    {
      "inputs": [
        {
          "internalType": "uint256",
          "name": "req_ind",
          "type": "uint256"
        },
        {
          "components": [
            {
              "internalType": "address",
              "name": "owner",
              "type": "address"
            },
            {
              "internalType": "uint256",
              "name": "qty",
              "type": "uint256"
            },
            {
              "internalType": "uint256",
              "name": "price",
              "type": "uint256"
            },
            {
              "internalType": "address",
              "name": "recipient",
              "type": "address"
            },
            {
              "internalType": "uint256",
              "name": "rec_req_id",
              "type": "uint256"
            },
            {
              "internalType": "bool",
              "name": "isSet",
              "type": "bool"
            }
          ],
          "internalType": "struct EgMarket.Offer",
          "name": "o",
          "type": "tuple"
        }
      ],
      "name": "setBestOffer",
      "outputs": [
        {
          "internalType": "bool",
          "name": "",
          "type": "bool"
        }
      ],
      "stateMutability": "nonpayable",
      "type": "function"
    },
    {
      "inputs": [
        {
          "internalType": "uint256",
          "name": "req_ind",
          "type": "uint256"
        }
      ],
      "name": "getBestOffer",
      "outputs": [
        {
          "components": [
            {
              "internalType": "address",
              "name": "owner",
              "type": "address"
            },
            {
              "internalType": "uint256",
              "name": "qty",
              "type": "uint256"
            },
            {
              "internalType": "uint256",
              "name": "price",
              "type": "uint256"
            },
            {
              "internalType": "address",
              "name": "recipient",
              "type": "address"
            },
            {
              "internalType": "uint256",
              "name": "rec_req_id",
              "type": "uint256"
            },
            {
              "internalType": "bool",
              "name": "isSet",
              "type": "bool"
            }
          ],
          "internalType": "struct EgMarket.Offer",
          "name": "",
          "type": "tuple"
        }
      ],
      "stateMutability": "view",
      "type": "function"
    },
    {
      "inputs": [],
      "name": "getMainProvider",
      "outputs": [
        {
          "internalType": "address",
          "name": "",
          "type": "address"
        }
      ],
      "stateMutability": "view",
      "type": "function"
    },
    {
      "inputs": [],
      "name": "getRequests",
      "outputs": [
        {
          "components": [
            {
              "internalType": "address",
              "name": "owner",
              "type": "address"
            },
            {
              "internalType": "uint256",
              "name": "id",
              "type": "uint256"
            },
            {
              "internalType": "uint256",
              "name": "qty",
              "type": "uint256"
            }
          ],
          "internalType": "struct EgMarket.Request[]",
          "name": "",
          "type": "tuple[]"
        }
      ],
      "stateMutability": "view",
      "type": "function"
    },
    {
      "inputs": [],
      "name": "getOffers",
      "outputs": [
        {
          "components": [
            {
              "internalType": "address",
              "name": "owner",
              "type": "address"
            },
            {
              "internalType": "uint256",
              "name": "qty",
              "type": "uint256"
            },
            {
              "internalType": "uint256",
              "name": "price",
              "type": "uint256"
            },
            {
              "internalType": "address",
              "name": "recipient",
              "type": "address"
            },
            {
              "internalType": "uint256",
              "name": "rec_req_id",
              "type": "uint256"
            },
            {
              "internalType": "bool",
              "name": "isSet",
              "type": "bool"
            }
          ],
          "internalType": "struct EgMarket.Offer[]",
          "name": "",
          "type": "tuple[]"
        }
      ],
      "stateMutability": "view",
      "type": "function"
    },
    {
      "inputs": [
        {
          "internalType": "uint256",
          "name": "_price",
          "type": "uint256"
        },
        {
          "internalType": "uint256",
          "name": "req_ind",
          "type": "uint256"
        }
      ],
      "name": "placeOffer",
      "outputs": [
        {
          "internalType": "bool",
          "name": "",
          "type": "bool"
        }
      ],
      "stateMutability": "nonpayable",
      "type": "function"
    },
    {
      "inputs": [
        {
          "internalType": "uint256",
          "name": "_qty",
          "type": "uint256"
        },
        {
          "internalType": "uint256",
          "name": "_id",
          "type": "uint256"
        }
      ],
      "name": "placeRequest",
      "outputs": [],
      "stateMutability": "nonpayable",
      "type": "function"
    },
    {
      "inputs": [
        {
          "internalType": "uint256",
          "name": "index",
          "type": "uint256"
        }
      ],
      "name": "removeRequest",
      "outputs": [],
      "stateMutability": "nonpayable",
      "type": "function"
    },
    {
      "inputs": [
        {
          "internalType": "uint256",
          "name": "index",
          "type": "uint256"
        }
      ],
      "name": "removeOffer",
      "outputs": [],
      "stateMutability": "nonpayable",
      "type": "function"
    }
  ],
  "bytecode": "0x608060405234801561001057600080fd5b50611ee7806100206000396000f3fe608060405234801561001057600080fd5b50600436106100cf5760003560e01c80638813ce121161008c578063a95902b211610066578063a95902b214610217578063bb92fff814610247578063c32bf7e114610277578063e2cf6b3914610295576100cf565b80638813ce12146101a85780638a72ea6a146101c657806395a0f9c7146101fb576100cf565b8063179ab3cd146100d45780633ee992ee146100f057806344786fc31461010e5780635d9152601461012a578063813ec0641461015a57806381d12c5814610176575b600080fd5b6100ee60048036038101906100e99190611561565b6102b3565b005b6100f8610423565b6040516101059190611736565b60405180910390f35b61012860048036038101906101239190611758565b610567565b005b610144600480360381019061013f9190611758565b61089f565b6040516101519190611800565b60405180910390f35b610174600480360381019061016f9190611847565b6109b1565b005b610190600480360381019061018b9190611758565b6109f4565b60405161019f93929190611892565b60405180910390f35b6101b0610a4e565b6040516101bd91906119ba565b60405180910390f35b6101e060048036038101906101db9190611758565b610b17565b6040516101f2969594939291906119eb565b60405180910390f35b61021560048036038101906102109190611758565b610bb0565b005b610231600480360381019061022c9190611561565b610e3e565b60405161023e9190611a4c565b60405180910390f35b610261600480360381019061025c9190611bc4565b61108a565b60405161026e9190611a4c565b60405180910390f35b61027f611434565b60405161028c9190611c04565b60405180910390f35b61029d61145d565b6040516102aa9190611c04565b60405180910390f35b60008054906101000a900473ffffffffffffffffffffffffffffffffffffffff1673ffffffffffffffffffffffffffffffffffffffff163373ffffffffffffffffffffffffffffffffffffffff1603610341576040517f08c379a000000000000000000000000000000000000000000000000000000000815260040161033890611c7c565b60405180910390fd5b610349611481565b33816000019073ffffffffffffffffffffffffffffffffffffffff16908173ffffffffffffffffffffffffffffffffffffffff16815250508281604001818152505081816020018181525050600181908060018154018082558091505060019003906000526020600020906003020160009091909190915060008201518160000160006101000a81548173ffffffffffffffffffffffffffffffffffffffff021916908373ffffffffffffffffffffffffffffffffffffffff16021790555060208201518160010155604082015181600201555050505050565b60606002805480602002602001604051908101604052809291908181526020016000905b8282101561055e57838290600052602060002090600602016040518060c00160405290816000820160009054906101000a900473ffffffffffffffffffffffffffffffffffffffff1673ffffffffffffffffffffffffffffffffffffffff1673ffffffffffffffffffffffffffffffffffffffff16815260200160018201548152602001600282015481526020016003820160009054906101000a900473ffffffffffffffffffffffffffffffffffffffff1673ffffffffffffffffffffffffffffffffffffffff1673ffffffffffffffffffffffffffffffffffffffff168152602001600482015481526020016005820160009054906101000a900460ff16151515158152505081526020019060010190610447565b50505050905090565b60018054905081106105ae576040517f08c379a00000000000000000000000000000000000000000000000000000000081526004016105a590611ce8565b60405180910390fd5b60008190505b600180805490506105c59190611d37565b8110156107fa57600180826105da9190611d6b565b815481106105eb576105ea611d9f565b5b90600052602060002090600302016001828154811061060d5761060c611d9f565b5b90600052602060002090600302016000820160009054906101000a900473ffffffffffffffffffffffffffffffffffffffff168160000160006101000a81548173ffffffffffffffffffffffffffffffffffffffff021916908373ffffffffffffffffffffffffffffffffffffffff1602179055506001820154816001015560028201548160020155905050600360006001836106aa9190611d6b565b8152602001908152602001600020600360008381526020019081526020016000206000820160009054906101000a900473ffffffffffffffffffffffffffffffffffffffff168160000160006101000a81548173ffffffffffffffffffffffffffffffffffffffff021916908373ffffffffffffffffffffffffffffffffffffffff16021790555060018201548160010155600282015481600201556003820160009054906101000a900473ffffffffffffffffffffffffffffffffffffffff168160030160006101000a81548173ffffffffffffffffffffffffffffffffffffffff021916908373ffffffffffffffffffffffffffffffffffffffff160217905550600482015481600401556005820160009054906101000a900460ff168160050160006101000a81548160ff02191690831515021790555090505080806107f290611dce565b9150506105b4565b50600060036000600180805490506108129190611d37565b815260200190815260200160002060050160006101000a81548160ff021916908315150217905550600180548061084c5761084b611e16565b5b6001900381819060005260206000209060030201600080820160006101000a81549073ffffffffffffffffffffffffffffffffffffffff0219169055600182016000905560028201600090555050905550565b6108a76114b8565b600360008381526020019081526020016000206040518060c00160405290816000820160009054906101000a900473ffffffffffffffffffffffffffffffffffffffff1673ffffffffffffffffffffffffffffffffffffffff1673ffffffffffffffffffffffffffffffffffffffff16815260200160018201548152602001600282015481526020016003820160009054906101000a900473ffffffffffffffffffffffffffffffffffffffff1673ffffffffffffffffffffffffffffffffffffffff1673ffffffffffffffffffffffffffffffffffffffff168152602001600482015481526020016005820160009054906101000a900460ff1615151515815250509050919050565b806000806101000a81548173ffffffffffffffffffffffffffffffffffffffff021916908373ffffffffffffffffffffffffffffffffffffffff16021790555050565b60018181548110610a0457600080fd5b90600052602060002090600302016000915090508060000160009054906101000a900473ffffffffffffffffffffffffffffffffffffffff16908060010154908060020154905083565b60606001805480602002602001604051908101604052809291908181526020016000905b82821015610b0e57838290600052602060002090600302016040518060600160405290816000820160009054906101000a900473ffffffffffffffffffffffffffffffffffffffff1673ffffffffffffffffffffffffffffffffffffffff1673ffffffffffffffffffffffffffffffffffffffff1681526020016001820154815260200160028201548152505081526020019060010190610a72565b50505050905090565b60028181548110610b2757600080fd5b90600052602060002090600602016000915090508060000160009054906101000a900473ffffffffffffffffffffffffffffffffffffffff16908060010154908060020154908060030160009054906101000a900473ffffffffffffffffffffffffffffffffffffffff16908060040154908060050160009054906101000a900460ff16905086565b6002805490508110610bf7576040517f08c379a0000000000000000000000000000000000000000000000000000000008152600401610bee90611e91565b60405180910390fd5b60008190505b6001600280549050610c0f9190611d37565b811015610d95576002600182610c259190611d6b565b81548110610c3657610c35611d9f565b5b906000526020600020906006020160028281548110610c5857610c57611d9f565b5b90600052602060002090600602016000820160009054906101000a900473ffffffffffffffffffffffffffffffffffffffff168160000160006101000a81548173ffffffffffffffffffffffffffffffffffffffff021916908373ffffffffffffffffffffffffffffffffffffffff16021790555060018201548160010155600282015481600201556003820160009054906101000a900473ffffffffffffffffffffffffffffffffffffffff168160030160006101000a81548173ffffffffffffffffffffffffffffffffffffffff021916908373ffffffffffffffffffffffffffffffffffffffff160217905550600482015481600401556005820160009054906101000a900460ff168160050160006101000a81548160ff0219169083151502179055509050508080610d8d90611dce565b915050610bfd565b506002805480610da857610da7611e16565b5b6001900381819060005260206000209060060201600080820160006101000a81549073ffffffffffffffffffffffffffffffffffffffff0219169055600182016000905560028201600090556003820160006101000a81549073ffffffffffffffffffffffffffffffffffffffff021916905560048201600090556005820160006101000a81549060ff02191690555050905550565b60008060018381548110610e5557610e54611d9f565b5b90600052602060002090600302016040518060600160405290816000820160009054906101000a900473ffffffffffffffffffffffffffffffffffffffff1673ffffffffffffffffffffffffffffffffffffffff1673ffffffffffffffffffffffffffffffffffffffff168152602001600182015481526020016002820154815250509050610ee26114b8565b33816000019073ffffffffffffffffffffffffffffffffffffffff16908173ffffffffffffffffffffffffffffffffffffffff16815250508160400151816020018181525050848160400181815250508160000151816060019073ffffffffffffffffffffffffffffffffffffffff16908173ffffffffffffffffffffffffffffffffffffffff16815250508160200151816080018181525050600281908060018154018082558091505060019003906000526020600020906006020160009091909190915060008201518160000160006101000a81548173ffffffffffffffffffffffffffffffffffffffff021916908373ffffffffffffffffffffffffffffffffffffffff160217905550602082015181600101556040820151816002015560608201518160030160006101000a81548173ffffffffffffffffffffffffffffffffffffffff021916908373ffffffffffffffffffffffffffffffffffffffff1602179055506080820151816004015560a08201518160050160006101000a81548160ff0219169083151502179055505050611080848261108a565b9250505092915050565b60006003600084815260200190815260200160002060050160009054906101000a900460ff166111cf57816003600085815260200190815260200160002060008201518160000160006101000a81548173ffffffffffffffffffffffffffffffffffffffff021916908373ffffffffffffffffffffffffffffffffffffffff160217905550602082015181600101556040820151816002015560608201518160030160006101000a81548173ffffffffffffffffffffffffffffffffffffffff021916908373ffffffffffffffffffffffffffffffffffffffff1602179055506080820151816004015560a08201518160050160006101000a81548160ff02191690831515021790555090505060016003600085815260200190815260200160002060050160006101000a81548160ff0219169083151502179055506001905061142e565b816060015173ffffffffffffffffffffffffffffffffffffffff16600184815481106111fe576111fd611d9f565b5b906000526020600020906003020160000160009054906101000a900473ffffffffffffffffffffffffffffffffffffffff1673ffffffffffffffffffffffffffffffffffffffff1614158061127c575081608001516001848154811061126757611266611d9f565b5b90600052602060002090600302016001015414155b806112b0575081602001516001848154811061129b5761129a611d9f565b5b90600052602060002090600302016002015414155b156112be576000905061142e565b81604001516003600085815260200190815260200160002060020154116112e8576000905061142e565b60006003600085815260200190815260200160002060050160006101000a81548160ff021916908315150217905550816003600085815260200190815260200160002060008201518160000160006101000a81548173ffffffffffffffffffffffffffffffffffffffff021916908373ffffffffffffffffffffffffffffffffffffffff160217905550602082015181600101556040820151816002015560608201518160030160006101000a81548173ffffffffffffffffffffffffffffffffffffffff021916908373ffffffffffffffffffffffffffffffffffffffff1602179055506080820151816004015560a08201518160050160006101000a81548160ff02191690831515021790555090505060016003600085815260200190815260200160002060050160006101000a81548160ff021916908315150217905550600190505b92915050565b60008060009054906101000a900473ffffffffffffffffffffffffffffffffffffffff16905090565b60008054906101000a900473ffffffffffffffffffffffffffffffffffffffff1681565b6040518060600160405280600073ffffffffffffffffffffffffffffffffffffffff16815260200160008152602001600081525090565b6040518060c00160405280600073ffffffffffffffffffffffffffffffffffffffff1681526020016000815260200160008152602001600073ffffffffffffffffffffffffffffffffffffffff168152602001600081526020016000151581525090565b6000604051905090565b600080fd5b6000819050919050565b61153e8161152b565b811461154957600080fd5b50565b60008135905061155b81611535565b92915050565b6000806040838503121561157857611577611526565b5b60006115868582860161154c565b92505060206115978582860161154c565b9150509250929050565b600081519050919050565b600082825260208201905092915050565b6000819050602082019050919050565b600073ffffffffffffffffffffffffffffffffffffffff82169050919050565b60006115f8826115cd565b9050919050565b611608816115ed565b82525050565b6116178161152b565b82525050565b60008115159050919050565b6116328161161d565b82525050565b60c08201600082015161164e60008501826115ff565b506020820151611661602085018261160e565b506040820151611674604085018261160e565b50606082015161168760608501826115ff565b50608082015161169a608085018261160e565b5060a08201516116ad60a0850182611629565b50505050565b60006116bf8383611638565b60c08301905092915050565b6000602082019050919050565b60006116e3826115a1565b6116ed81856115ac565b93506116f8836115bd565b8060005b8381101561172957815161171088826116b3565b975061171b836116cb565b9250506001810190506116fc565b5085935050505092915050565b6000602082019050818103600083015261175081846116d8565b905092915050565b60006020828403121561176e5761176d611526565b5b600061177c8482850161154c565b91505092915050565b60c08201600082015161179b60008501826115ff565b5060208201516117ae602085018261160e565b5060408201516117c1604085018261160e565b5060608201516117d460608501826115ff565b5060808201516117e7608085018261160e565b5060a08201516117fa60a0850182611629565b50505050565b600060c0820190506118156000830184611785565b92915050565b611824816115ed565b811461182f57600080fd5b50565b6000813590506118418161181b565b92915050565b60006020828403121561185d5761185c611526565b5b600061186b84828501611832565b91505092915050565b61187d816115ed565b82525050565b61188c8161152b565b82525050565b60006060820190506118a76000830186611874565b6118b46020830185611883565b6118c16040830184611883565b949350505050565b600081519050919050565b600082825260208201905092915050565b6000819050602082019050919050565b60608201600082015161190b60008501826115ff565b50602082015161191e602085018261160e565b506040820151611931604085018261160e565b50505050565b600061194383836118f5565b60608301905092915050565b6000602082019050919050565b6000611967826118c9565b61197181856118d4565b935061197c836118e5565b8060005b838110156119ad5781516119948882611937565b975061199f8361194f565b925050600181019050611980565b5085935050505092915050565b600060208201905081810360008301526119d4818461195c565b905092915050565b6119e58161161d565b82525050565b600060c082019050611a006000830189611874565b611a0d6020830188611883565b611a1a6040830187611883565b611a276060830186611874565b611a346080830185611883565b611a4160a08301846119dc565b979650505050505050565b6000602082019050611a6160008301846119dc565b92915050565b600080fd5b6000601f19601f8301169050919050565b7f4e487b7100000000000000000000000000000000000000000000000000000000600052604160045260246000fd5b611ab582611a6c565b810181811067ffffffffffffffff82111715611ad457611ad3611a7d565b5b80604052505050565b6000611ae761151c565b9050611af38282611aac565b919050565b611b018161161d565b8114611b0c57600080fd5b50565b600081359050611b1e81611af8565b92915050565b600060c08284031215611b3a57611b39611a67565b5b611b4460c0611add565b90506000611b5484828501611832565b6000830152506020611b688482850161154c565b6020830152506040611b7c8482850161154c565b6040830152506060611b9084828501611832565b6060830152506080611ba48482850161154c565b60808301525060a0611bb884828501611b0f565b60a08301525092915050565b60008060e08385031215611bdb57611bda611526565b5b6000611be98582860161154c565b9250506020611bfa85828601611b24565b9150509250929050565b6000602082019050611c196000830184611874565b92915050565b600082825260208201905092915050565b7f4d61696e2050726f76696465722043616e27742041736b000000000000000000600082015250565b6000611c66601783611c1f565b9150611c7182611c30565b602082019050919050565b60006020820190508181036000830152611c9581611c59565b9050919050565b7f27526571756573742720696e646578206f7574206f662072616e676500000000600082015250565b6000611cd2601c83611c1f565b9150611cdd82611c9c565b602082019050919050565b60006020820190508181036000830152611d0181611cc5565b9050919050565b7f4e487b7100000000000000000000000000000000000000000000000000000000600052601160045260246000fd5b6000611d428261152b565b9150611d4d8361152b565b9250828203905081811115611d6557611d64611d08565b5b92915050565b6000611d768261152b565b9150611d818361152b565b9250828201905080821115611d9957611d98611d08565b5b92915050565b7f4e487b7100000000000000000000000000000000000000000000000000000000600052603260045260246000fd5b6000611dd98261152b565b91507fffffffffffffffffffffffffffffffffffffffffffffffffffffffffffffffff8203611e0b57611e0a611d08565b5b600182019050919050565b7f4e487b7100000000000000000000000000000000000000000000000000000000600052603160045260246000fd5b7f274f666665722720696e646578206f7574206f662072616e6765000000000000600082015250565b6000611e7b601a83611c1f565b9150611e8682611e45565b602082019050919050565b60006020820190508181036000830152611eaa81611e6e565b905091905056fea2646970667358221220315e679d333055c319f16dc56bc834e8849b8bbee5664b4ba0379b884afd872564736f6c63430008100033",
  "immutableReferences": {},
  "source": "// SPDX-License-Identifier: GPL-3.0\r\npragma solidity >=0.8.0 <0.9.0;\r\n\r\ncontract EgMarket {\r\n    struct Request {\r\n        address owner;\r\n        uint id;\r\n        uint qty;\r\n    }\r\n\r\n    struct Offer {\r\n        address owner;\r\n        uint qty;\r\n        uint price;\r\n        address recipient;\r\n        uint rec_req_id; //recipient request id\r\n        bool isSet; // to find in mapping\r\n    }\r\n\r\n    address public mainProvider;\r\n    Request[] public requests;\r\n    Offer[] public offers;\r\n    mapping(uint => Offer) best_offer;\r\n\r\n    function setMainProvider(address _mainProvider) public {\r\n        mainProvider = _mainProvider;\r\n    }\r\n\r\n    function setBestOffer(uint req_ind, Offer memory o) public returns (bool) { // validate offer then set it as best\r\n        if(!best_offer[req_ind].isSet) {\r\n            best_offer[req_ind] = o;\r\n            best_offer[req_ind].isSet = true;\r\n            return true;\r\n        }\r\n        if((requests[req_ind].owner != o.recipient) || (requests[req_ind].id != o.rec_req_id) || (requests[req_ind].qty != o.qty)) {\r\n            return false;\r\n        }\r\n\r\n        if(best_offer[req_ind].price <= o.price) {\r\n            return false;\r\n        }\r\n\r\n        best_offer[req_ind].isSet = false; // set old offer to false\r\n        best_offer[req_ind] = o;\r\n        best_offer[req_ind].isSet = true;\r\n        return true;\r\n    }\r\n\r\n    function getBestOffer(uint req_ind) public view returns ( Offer memory) {\r\n        return best_offer[req_ind];\r\n    }\r\n\r\n    \r\n    function getMainProvider() public view returns (address) {\r\n        return mainProvider;\r\n    }\r\n\r\n    function getRequests() public view returns (Request[] memory) {\r\n        return requests;\r\n    }\r\n\r\n    function getOffers() public view returns (Offer[] memory) {\r\n        return offers;\r\n    }\r\n\r\n    function placeOffer(uint _price, uint req_ind) public returns (bool){\r\n        \r\n        Request memory req = requests[req_ind];\r\n        Offer memory o;\r\n        o.owner = msg.sender;\r\n        o.qty = req.qty; //_qty;\r\n        o.price = _price;\r\n        o.recipient = req.owner; //_recipient;\r\n        o.rec_req_id = req.id;//_rec_req_id;\r\n        offers.push(o);\r\n        return setBestOffer(req_ind, o);         \r\n    }\r\n\r\n    function placeRequest(uint _qty, uint _id) public {\r\n        \r\n        require(msg.sender != mainProvider, \"Main Provider Can't Ask\");\r\n        Request memory r;\r\n        r.owner = msg.sender;\r\n        r.qty = _qty;\r\n        r.id = _id;\r\n        requests.push(r);\r\n        \r\n    }\r\n\r\n    // remove offer, request\r\n\r\n    function removeRequest(uint index) public {\r\n        \r\n        require(index < requests.length, \"'Request' index out of range\");\r\n        \r\n        for (uint i = index; i<requests.length-1; i++){\r\n            requests[i] = requests[i+1];\r\n            best_offer[i] = best_offer[i+1];\r\n        }\r\n        // delete requests[requests.length - 1];\r\n        best_offer[requests.length - 1].isSet = false;\r\n        requests.pop();        \r\n    }\r\n\r\n    function removeOffer(uint index) public {\r\n        \r\n        require(index < offers.length, \"'Offer' index out of range\");\r\n        \r\n        for (uint i = index; i<offers.length-1; i++){\r\n            offers[i] = offers[i+1];\r\n        }\r\n        // delete offers[offers.length - 1];\r\n        offers.pop();\r\n        \r\n    }\r\n}\r\n",
  "sourcePath": "/mnt/e/Dataarea/shrutiman_20.01.2022_e/SP Instt of Tech/SEM7/BCT_oe/bctprj/trialbct/contracts/Energy_market.sol",
  "compiler": {
    "name": "solc",
    "version": "0.8.16+commit.07a7930e.Emscripten.clang"
  },
  "schemaVersion": "3.4.16",
  "updatedAt": "2023-12-09T20:07:24.711Z",
  "devdoc": {
    "kind": "dev",
    "methods": {},
    "version": 1
  },
  "userdoc": {
    "kind": "user",
    "methods": {},
    "version": 1
  }
}