{
  "contractName": "EgMarket",
  "abi": [
    {
      "inputs": [],
      "name": "mainProvider",
      "outputs": [
        {
          "internalType": "address",
          "name": "",
          "type": "address"
        }
      ],
      "stateMutability": "view",
      "type": "function",
      "constant": true
    },
    {
      "inputs": [
        {
          "internalType": "uint256",
          "name": "",
          "type": "uint256"
        }
      ],
      "name": "offers",
      "outputs": [
        {
          "internalType": "address",
          "name": "owner",
          "type": "address"
        },
        {
          "internalType": "uint256",
          "name": "qty",
          "type": "uint256"
        },
        {
          "internalType": "uint256",
          "name": "price",
          "type": "uint256"
        }
      ],
      "stateMutability": "view",
      "type": "function",
      "constant": true
    },
    {
      "inputs": [
        {
          "internalType": "uint256",
          "name": "",
          "type": "uint256"
        }
      ],
      "name": "requests",
      "outputs": [
        {
          "internalType": "address",
          "name": "owner",
          "type": "address"
        },
        {
          "internalType": "uint256",
          "name": "qty",
          "type": "uint256"
        }
      ],
      "stateMutability": "view",
      "type": "function",
      "constant": true
    },
    {
      "inputs": [],
      "name": "getMainProvider",
      "outputs": [
        {
          "internalType": "address",
          "name": "",
          "type": "address"
        }
      ],
      "stateMutability": "view",
      "type": "function",
      "constant": true
    },
    {
      "inputs": [],
      "name": "getRequests",
      "outputs": [
        {
          "components": [
            {
              "internalType": "address",
              "name": "owner",
              "type": "address"
            },
            {
              "internalType": "uint256",
              "name": "qty",
              "type": "uint256"
            }
          ],
          "internalType": "struct EgMarket.Request[]",
          "name": "",
          "type": "tuple[]"
        }
      ],
      "stateMutability": "view",
      "type": "function",
      "constant": true
    },
    {
      "inputs": [],
      "name": "getOffers",
      "outputs": [
        {
          "components": [
            {
              "internalType": "address",
              "name": "owner",
              "type": "address"
            },
            {
              "internalType": "uint256",
              "name": "qty",
              "type": "uint256"
            },
            {
              "internalType": "uint256",
              "name": "price",
              "type": "uint256"
            }
          ],
          "internalType": "struct EgMarket.Offer[]",
          "name": "",
          "type": "tuple[]"
        }
      ],
      "stateMutability": "view",
      "type": "function",
      "constant": true
    },
    {
      "inputs": [
        {
          "internalType": "uint256",
          "name": "_qty",
          "type": "uint256"
        },
        {
          "internalType": "uint256",
          "name": "_price",
          "type": "uint256"
        }
      ],
      "name": "placeOffer",
      "outputs": [],
      "stateMutability": "nonpayable",
      "type": "function"
    },
    {
      "inputs": [
        {
          "internalType": "uint256",
          "name": "_qty",
          "type": "uint256"
        }
      ],
      "name": "placeRequest",
      "outputs": [],
      "stateMutability": "nonpayable",
      "type": "function"
    },
    {
      "inputs": [
        {
          "internalType": "uint256",
          "name": "index",
          "type": "uint256"
        }
      ],
      "name": "removeRequest",
      "outputs": [],
      "stateMutability": "nonpayable",
      "type": "function"
    },
    {
      "inputs": [
        {
          "internalType": "uint256",
          "name": "index",
          "type": "uint256"
        }
      ],
      "name": "removeOffer",
      "outputs": [],
      "stateMutability": "nonpayable",
      "type": "function"
    }
  ],
  "bytecode": "0x608060405234801561001057600080fd5b50611416806100206000396000f3fe608060405234801561001057600080fd5b506004361061009e5760003560e01c80638a72ea6a116100665780638a72ea6a1461014857806395a0f9c71461017a578063a95902b214610196578063c32bf7e1146101b2578063e2cf6b39146101d05761009e565b80633ee992ee146100a357806344786fc3146100c157806351a1fcb3146100dd57806381d12c58146100f95780638813ce121461012a575b600080fd5b6100ab6101ee565b6040516100b89190610e54565b60405180910390f35b6100db60048036038101906100d69190610ea7565b6102b7565b005b6100f760048036038101906100f29190610ea7565b6104cc565b005b610113600480360381019061010e9190610ea7565b6106a3565b604051610121929190610ef2565b60405180910390f35b6101326106f7565b60405161013f9190610ff9565b60405180910390f35b610162600480360381019061015d9190610ea7565b6107b6565b6040516101719392919061101b565b60405180910390f35b610194600480360381019061018f9190610ea7565b610810565b005b6101b060048036038101906101ab9190611052565b610a39565b005b6101ba610b97565b6040516101c79190611092565b60405180910390f35b6101d8610bc0565b6040516101e59190611092565b60405180910390f35b60606002805480602002602001604051908101604052809291908181526020016000905b828210156102ae57838290600052602060002090600302016040518060600160405290816000820160009054906101000a900473ffffffffffffffffffffffffffffffffffffffff1673ffffffffffffffffffffffffffffffffffffffff1673ffffffffffffffffffffffffffffffffffffffff1681526020016001820154815260200160028201548152505081526020019060010190610212565b50505050905090565b6102f56040518060400160405280601081526020017f496e2072656d6f76655265717565737400000000000000000000000000000000815250610be4565b600180549050811061033c576040517f08c379a00000000000000000000000000000000000000000000000000000000081526004016103339061110a565b60405180910390fd5b60008190505b600180805490506103539190611159565b8110156104305760018082610368919061118d565b81548110610379576103786111c1565b5b90600052602060002090600202016001828154811061039b5761039a6111c1565b5b90600052602060002090600202016000820160009054906101000a900473ffffffffffffffffffffffffffffffffffffffff168160000160006101000a81548173ffffffffffffffffffffffffffffffffffffffff021916908373ffffffffffffffffffffffffffffffffffffffff160217905550600182015481600101559050508080610428906111f0565b915050610342565b50600180548061044357610442611238565b5b6001900381819060005260206000209060020201600080820160006101000a81549073ffffffffffffffffffffffffffffffffffffffff02191690556001820160009055505090556104c96040518060400160405280601181526020017f4f75742072656d6f766552657175657374000000000000000000000000000000815250610be4565b50565b61050a6040518060400160405280600f81526020017f496e20706c616365526571756573740000000000000000000000000000000000815250610be4565b60008054906101000a900473ffffffffffffffffffffffffffffffffffffffff1673ffffffffffffffffffffffffffffffffffffffff163373ffffffffffffffffffffffffffffffffffffffff1603610598576040517f08c379a000000000000000000000000000000000000000000000000000000000815260040161058f906112b3565b60405180910390fd5b6105a0610ca2565b33816000019073ffffffffffffffffffffffffffffffffffffffff16908173ffffffffffffffffffffffffffffffffffffffff168152505081816020018181525050600181908060018154018082558091505060019003906000526020600020906002020160009091909190915060008201518160000160006101000a81548173ffffffffffffffffffffffffffffffffffffffff021916908373ffffffffffffffffffffffffffffffffffffffff16021790555060208201518160010155505061069f6040518060400160405280601081526020017f4f757420706c6163655265717565737400000000000000000000000000000000815250610be4565b5050565b600181815481106106b357600080fd5b90600052602060002090600202016000915090508060000160009054906101000a900473ffffffffffffffffffffffffffffffffffffffff16908060010154905082565b60606001805480602002602001604051908101604052809291908181526020016000905b828210156107ad57838290600052602060002090600202016040518060400160405290816000820160009054906101000a900473ffffffffffffffffffffffffffffffffffffffff1673ffffffffffffffffffffffffffffffffffffffff1673ffffffffffffffffffffffffffffffffffffffff1681526020016001820154815250508152602001906001019061071b565b50505050905090565b600281815481106107c657600080fd5b90600052602060002090600302016000915090508060000160009054906101000a900473ffffffffffffffffffffffffffffffffffffffff16908060010154908060020154905083565b61084e6040518060400160405280600e81526020017f496e2072656d6f76654f66666572000000000000000000000000000000000000815250610be4565b6002805490508110610895576040517f08c379a000000000000000000000000000000000000000000000000000000000815260040161088c9061131f565b60405180910390fd5b60008190505b60016002805490506108ad9190611159565b8110156109955760026001826108c3919061118d565b815481106108d4576108d36111c1565b5b9060005260206000209060030201600282815481106108f6576108f56111c1565b5b90600052602060002090600302016000820160009054906101000a900473ffffffffffffffffffffffffffffffffffffffff168160000160006101000a81548173ffffffffffffffffffffffffffffffffffffffff021916908373ffffffffffffffffffffffffffffffffffffffff1602179055506001820154816001015560028201548160020155905050808061098d906111f0565b91505061089b565b5060028054806109a8576109a7611238565b5b6001900381819060005260206000209060030201600080820160006101000a81549073ffffffffffffffffffffffffffffffffffffffff02191690556001820160009055600282016000905550509055610a366040518060400160405280600f81526020017f4f75742072656d6f76654f666665720000000000000000000000000000000000815250610be4565b50565b610a776040518060400160405280600d81526020017f496e20706c6163654f6666657200000000000000000000000000000000000000815250610be4565b610a7f610cd2565b33816000019073ffffffffffffffffffffffffffffffffffffffff16908173ffffffffffffffffffffffffffffffffffffffff16815250508281602001818152505081816040018181525050600281908060018154018082558091505060019003906000526020600020906003020160009091909190915060008201518160000160006101000a81548173ffffffffffffffffffffffffffffffffffffffff021916908373ffffffffffffffffffffffffffffffffffffffff16021790555060208201518160010155604082015181600201555050610b926040518060400160405280600e81526020017f4f757420706c6163654f66666572000000000000000000000000000000000000815250610be4565b505050565b60008060009054906101000a900473ffffffffffffffffffffffffffffffffffffffff16905090565b60008054906101000a900473ffffffffffffffffffffffffffffffffffffffff1681565b610c7a81604051602401610bf891906113be565b6040516020818303038152906040527f41304fac000000000000000000000000000000000000000000000000000000007bffffffffffffffffffffffffffffffffffffffffffffffffffffffff19166020820180517bffffffffffffffffffffffffffffffffffffffffffffffffffffffff8381831617835250505050610c7d565b50565b60006a636f6e736f6c652e6c6f6790508151602083016000808383865afa5050505050565b6040518060400160405280600073ffffffffffffffffffffffffffffffffffffffff168152602001600081525090565b6040518060600160405280600073ffffffffffffffffffffffffffffffffffffffff16815260200160008152602001600081525090565b600081519050919050565b600082825260208201905092915050565b6000819050602082019050919050565b600073ffffffffffffffffffffffffffffffffffffffff82169050919050565b6000610d6082610d35565b9050919050565b610d7081610d55565b82525050565b6000819050919050565b610d8981610d76565b82525050565b606082016000820151610da56000850182610d67565b506020820151610db86020850182610d80565b506040820151610dcb6040850182610d80565b50505050565b6000610ddd8383610d8f565b60608301905092915050565b6000602082019050919050565b6000610e0182610d09565b610e0b8185610d14565b9350610e1683610d25565b8060005b83811015610e47578151610e2e8882610dd1565b9750610e3983610de9565b925050600181019050610e1a565b5085935050505092915050565b60006020820190508181036000830152610e6e8184610df6565b905092915050565b600080fd5b610e8481610d76565b8114610e8f57600080fd5b50565b600081359050610ea181610e7b565b92915050565b600060208284031215610ebd57610ebc610e76565b5b6000610ecb84828501610e92565b91505092915050565b610edd81610d55565b82525050565b610eec81610d76565b82525050565b6000604082019050610f076000830185610ed4565b610f146020830184610ee3565b9392505050565b600081519050919050565b600082825260208201905092915050565b6000819050602082019050919050565b604082016000820151610f5d6000850182610d67565b506020820151610f706020850182610d80565b50505050565b6000610f828383610f47565b60408301905092915050565b6000602082019050919050565b6000610fa682610f1b565b610fb08185610f26565b9350610fbb83610f37565b8060005b83811015610fec578151610fd38882610f76565b9750610fde83610f8e565b925050600181019050610fbf565b5085935050505092915050565b600060208201905081810360008301526110138184610f9b565b905092915050565b60006060820190506110306000830186610ed4565b61103d6020830185610ee3565b61104a6040830184610ee3565b949350505050565b6000806040838503121561106957611068610e76565b5b600061107785828601610e92565b925050602061108885828601610e92565b9150509250929050565b60006020820190506110a76000830184610ed4565b92915050565b600082825260208201905092915050565b7f27526571756573742720696e646578206f7574206f662072616e676500000000600082015250565b60006110f4601c836110ad565b91506110ff826110be565b602082019050919050565b60006020820190508181036000830152611123816110e7565b9050919050565b7f4e487b7100000000000000000000000000000000000000000000000000000000600052601160045260246000fd5b600061116482610d76565b915061116f83610d76565b92508282039050818111156111875761118661112a565b5b92915050565b600061119882610d76565b91506111a383610d76565b92508282019050808211156111bb576111ba61112a565b5b92915050565b7f4e487b7100000000000000000000000000000000000000000000000000000000600052603260045260246000fd5b60006111fb82610d76565b91507fffffffffffffffffffffffffffffffffffffffffffffffffffffffffffffffff820361122d5761122c61112a565b5b600182019050919050565b7f4e487b7100000000000000000000000000000000000000000000000000000000600052603160045260246000fd5b7f4d61696e2050726f76696465722043616e27742041736b000000000000000000600082015250565b600061129d6017836110ad565b91506112a882611267565b602082019050919050565b600060208201905081810360008301526112cc81611290565b9050919050565b7f274f666665722720696e646578206f7574206f662072616e6765000000000000600082015250565b6000611309601a836110ad565b9150611314826112d3565b602082019050919050565b60006020820190508181036000830152611338816112fc565b9050919050565b600081519050919050565b60005b8381101561136857808201518184015260208101905061134d565b60008484015250505050565b6000601f19601f8301169050919050565b60006113908261133f565b61139a81856110ad565b93506113aa81856020860161134a565b6113b381611374565b840191505092915050565b600060208201905081810360008301526113d88184611385565b90509291505056fea26469706673582212202441bd95ce06cbd68aa0d08be201e3986bc482c4e70c6004329f477c053b6b2264736f6c63430008100033",
  "immutableReferences": {},
  "source": "// SPDX-License-Identifier: GPL-3.0\r\npragma solidity >=0.8.0 <0.9.0;\r\nimport \"truffle/console.sol\";\r\n\r\ncontract EgMarket {\r\n    struct Request {\r\n        address owner;\r\n        uint qty;\r\n    }\r\n\r\n    struct Offer {\r\n        address owner;\r\n        uint qty;\r\n        uint price;\r\n    }\r\n\r\n    address public mainProvider;\r\n    Request[] public requests;\r\n    Offer[] public offers;\r\n\r\n    function getMainProvider() public view returns (address) {\r\n        return mainProvider;\r\n    }\r\n\r\n    function getRequests() public view returns (Request[] memory) {\r\n        return requests;\r\n    }\r\n\r\n    function getOffers() public view returns (Offer[] memory) {\r\n        return offers;\r\n    }\r\n\r\n    function placeOffer(uint _qty, uint _price) public {\r\n        console.log(\"In placeOffer\");\r\n        Offer memory o;\r\n        o.owner = msg.sender;\r\n        o.qty = _qty;\r\n        o.price = _price;\r\n        offers.push(o);\r\n        console.log(\"Out placeOffer\");\r\n    }\r\n\r\n    function placeRequest(uint _qty) public {\r\n        console.log(\"In placeRequest\");\r\n        require(msg.sender != mainProvider, \"Main Provider Can't Ask\");\r\n        Request memory r;\r\n        r.owner = msg.sender;\r\n        r.qty = _qty;\r\n        requests.push(r);\r\n        console.log(\"Out placeRequest\");\r\n    }\r\n\r\n    // remove offer, request\r\n\r\n    function removeRequest(uint index) public {\r\n        console.log(\"In removeRequest\");\r\n        require(index < requests.length, \"'Request' index out of range\");\r\n        \r\n        for (uint i = index; i<requests.length-1; i++){\r\n            requests[i] = requests[i+1];\r\n        }\r\n        // delete requests[requests.length - 1];\r\n        requests.pop();\r\n        console.log(\"Out removeRequest\");\r\n    }\r\n\r\n    function removeOffer(uint index) public {\r\n        console.log(\"In removeOffer\");\r\n        require(index < offers.length, \"'Offer' index out of range\");\r\n        \r\n        for (uint i = index; i<offers.length-1; i++){\r\n            offers[i] = offers[i+1];\r\n        }\r\n        // delete offers[offers.length - 1];\r\n        offers.pop();\r\n        console.log(\"Out removeOffer\");\r\n    }\r\n}\r\n",
  "sourcePath": "/mnt/e/Dataarea/shrutiman_20.01.2022_e/SP Instt of Tech/SEM7/BCT_oe/bctprj/trialbct/contracts/Energy_market.sol",
  "compiler": {
    "name": "solc",
    "version": "0.8.16+commit.07a7930e.Emscripten.clang"
  },
  "schemaVersion": "3.4.16",
  "updatedAt": "2023-12-05T20:11:12.575Z",
  "networkType": "ethereum",
  "devdoc": {
    "kind": "dev",
    "methods": {},
    "version": 1
  },
  "userdoc": {
    "kind": "user",
    "methods": {},
    "version": 1
  }
}