{
  "contractName": "EgMarket",
  "abi": [
    {
      "inputs": [],
      "name": "mainProvider",
      "outputs": [
        {
          "internalType": "address",
          "name": "",
          "type": "address"
        }
      ],
      "stateMutability": "view",
      "type": "function"
    },
    {
      "inputs": [
        {
          "internalType": "uint256",
          "name": "",
          "type": "uint256"
        }
      ],
      "name": "offers",
      "outputs": [
        {
          "internalType": "address",
          "name": "owner",
          "type": "address"
        },
        {
          "internalType": "uint256",
          "name": "qty",
          "type": "uint256"
        },
        {
          "internalType": "uint256",
          "name": "price",
          "type": "uint256"
        },
        {
          "internalType": "address",
          "name": "recipient",
          "type": "address"
        },
        {
          "internalType": "uint256",
          "name": "rec_req_id",
          "type": "uint256"
        }
      ],
      "stateMutability": "view",
      "type": "function"
    },
    {
      "inputs": [
        {
          "internalType": "uint256",
          "name": "",
          "type": "uint256"
        }
      ],
      "name": "requests",
      "outputs": [
        {
          "internalType": "address",
          "name": "owner",
          "type": "address"
        },
        {
          "internalType": "uint256",
          "name": "id",
          "type": "uint256"
        },
        {
          "internalType": "uint256",
          "name": "qty",
          "type": "uint256"
        }
      ],
      "stateMutability": "view",
      "type": "function"
    },
    {
      "inputs": [
        {
          "internalType": "address",
          "name": "_mainProvider",
          "type": "address"
        }
      ],
      "name": "setMainProvider",
      "outputs": [],
      "stateMutability": "nonpayable",
      "type": "function"
    },
    {
      "inputs": [],
      "name": "getMainProvider",
      "outputs": [
        {
          "internalType": "address",
          "name": "",
          "type": "address"
        }
      ],
      "stateMutability": "view",
      "type": "function"
    },
    {
      "inputs": [],
      "name": "getRequests",
      "outputs": [
        {
          "components": [
            {
              "internalType": "address",
              "name": "owner",
              "type": "address"
            },
            {
              "internalType": "uint256",
              "name": "id",
              "type": "uint256"
            },
            {
              "internalType": "uint256",
              "name": "qty",
              "type": "uint256"
            }
          ],
          "internalType": "struct EgMarket.Request[]",
          "name": "",
          "type": "tuple[]"
        }
      ],
      "stateMutability": "view",
      "type": "function"
    },
    {
      "inputs": [],
      "name": "getOffers",
      "outputs": [
        {
          "components": [
            {
              "internalType": "address",
              "name": "owner",
              "type": "address"
            },
            {
              "internalType": "uint256",
              "name": "qty",
              "type": "uint256"
            },
            {
              "internalType": "uint256",
              "name": "price",
              "type": "uint256"
            },
            {
              "internalType": "address",
              "name": "recipient",
              "type": "address"
            },
            {
              "internalType": "uint256",
              "name": "rec_req_id",
              "type": "uint256"
            }
          ],
          "internalType": "struct EgMarket.Offer[]",
          "name": "",
          "type": "tuple[]"
        }
      ],
      "stateMutability": "view",
      "type": "function"
    },
    {
      "inputs": [
        {
          "internalType": "uint256",
          "name": "_qty",
          "type": "uint256"
        },
        {
          "internalType": "uint256",
          "name": "_price",
          "type": "uint256"
        },
        {
          "internalType": "address",
          "name": "_recipient",
          "type": "address"
        },
        {
          "internalType": "uint256",
          "name": "_rec_req_id",
          "type": "uint256"
        }
      ],
      "name": "placeOffer",
      "outputs": [],
      "stateMutability": "nonpayable",
      "type": "function"
    },
    {
      "inputs": [
        {
          "internalType": "uint256",
          "name": "_qty",
          "type": "uint256"
        },
        {
          "internalType": "uint256",
          "name": "_id",
          "type": "uint256"
        }
      ],
      "name": "placeRequest",
      "outputs": [],
      "stateMutability": "nonpayable",
      "type": "function"
    },
    {
      "inputs": [
        {
          "internalType": "uint256",
          "name": "index",
          "type": "uint256"
        }
      ],
      "name": "removeRequest",
      "outputs": [],
      "stateMutability": "nonpayable",
      "type": "function"
    },
    {
      "inputs": [
        {
          "internalType": "uint256",
          "name": "index",
          "type": "uint256"
        }
      ],
      "name": "removeOffer",
      "outputs": [],
      "stateMutability": "nonpayable",
      "type": "function"
    }
  ],
  "bytecode": "0x608060405234801561001057600080fd5b5061147a806100206000396000f3fe608060405234801561001057600080fd5b50600436106100a95760003560e01c80638813ce12116100715780638813ce12146101525780638a72ea6a1461017057806395a0f9c7146101a4578063ad279284146101c0578063c32bf7e1146101dc578063e2cf6b39146101fa576100a9565b8063179ab3cd146100ae5780633ee992ee146100ca57806344786fc3146100e8578063813ec0641461010457806381d12c5814610120575b600080fd5b6100c860048036038101906100c39190610d26565b610218565b005b6100d2610388565b6040516100df9190610ecd565b60405180910390f35b61010260048036038101906100fd9190610eef565b6104b1565b005b61011e60048036038101906101199190610f48565b61065c565b005b61013a60048036038101906101359190610eef565b61069f565b60405161014993929190610f93565b60405180910390f35b61015a6106f9565b60405161016791906110bb565b60405180910390f35b61018a60048036038101906101859190610eef565b6107c2565b60405161019b9594939291906110dd565b60405180910390f35b6101be60048036038101906101b99190610eef565b610848565b005b6101da60048036038101906101d59190611130565b610a95565b005b6101e4610c0c565b6040516101f19190611197565b60405180910390f35b610202610c35565b60405161020f9190611197565b60405180910390f35b60008054906101000a900473ffffffffffffffffffffffffffffffffffffffff1673ffffffffffffffffffffffffffffffffffffffff163373ffffffffffffffffffffffffffffffffffffffff16036102a6576040517f08c379a000000000000000000000000000000000000000000000000000000000815260040161029d9061120f565b60405180910390fd5b6102ae610c59565b33816000019073ffffffffffffffffffffffffffffffffffffffff16908173ffffffffffffffffffffffffffffffffffffffff16815250508281604001818152505081816020018181525050600181908060018154018082558091505060019003906000526020600020906003020160009091909190915060008201518160000160006101000a81548173ffffffffffffffffffffffffffffffffffffffff021916908373ffffffffffffffffffffffffffffffffffffffff16021790555060208201518160010155604082015181600201555050505050565b60606002805480602002602001604051908101604052809291908181526020016000905b828210156104a857838290600052602060002090600502016040518060a00160405290816000820160009054906101000a900473ffffffffffffffffffffffffffffffffffffffff1673ffffffffffffffffffffffffffffffffffffffff1673ffffffffffffffffffffffffffffffffffffffff16815260200160018201548152602001600282015481526020016003820160009054906101000a900473ffffffffffffffffffffffffffffffffffffffff1673ffffffffffffffffffffffffffffffffffffffff1673ffffffffffffffffffffffffffffffffffffffff168152602001600482015481525050815260200190600101906103ac565b50505050905090565b60018054905081106104f8576040517f08c379a00000000000000000000000000000000000000000000000000000000081526004016104ef9061127b565b60405180910390fd5b60008190505b6001808054905061050f91906112ca565b8110156105f6576001808261052491906112fe565b8154811061053557610534611332565b5b90600052602060002090600302016001828154811061055757610556611332565b5b90600052602060002090600302016000820160009054906101000a900473ffffffffffffffffffffffffffffffffffffffff168160000160006101000a81548173ffffffffffffffffffffffffffffffffffffffff021916908373ffffffffffffffffffffffffffffffffffffffff160217905550600182015481600101556002820154816002015590505080806105ee90611361565b9150506104fe565b506001805480610609576106086113a9565b5b6001900381819060005260206000209060030201600080820160006101000a81549073ffffffffffffffffffffffffffffffffffffffff0219169055600182016000905560028201600090555050905550565b806000806101000a81548173ffffffffffffffffffffffffffffffffffffffff021916908373ffffffffffffffffffffffffffffffffffffffff16021790555050565b600181815481106106af57600080fd5b90600052602060002090600302016000915090508060000160009054906101000a900473ffffffffffffffffffffffffffffffffffffffff16908060010154908060020154905083565b60606001805480602002602001604051908101604052809291908181526020016000905b828210156107b957838290600052602060002090600302016040518060600160405290816000820160009054906101000a900473ffffffffffffffffffffffffffffffffffffffff1673ffffffffffffffffffffffffffffffffffffffff1673ffffffffffffffffffffffffffffffffffffffff168152602001600182015481526020016002820154815250508152602001906001019061071d565b50505050905090565b600281815481106107d257600080fd5b90600052602060002090600502016000915090508060000160009054906101000a900473ffffffffffffffffffffffffffffffffffffffff16908060010154908060020154908060030160009054906101000a900473ffffffffffffffffffffffffffffffffffffffff16908060040154905085565b600280549050811061088f576040517f08c379a000000000000000000000000000000000000000000000000000000000815260040161088690611424565b60405180910390fd5b60008190505b60016002805490506108a791906112ca565b811015610a005760026001826108bd91906112fe565b815481106108ce576108cd611332565b5b9060005260206000209060050201600282815481106108f0576108ef611332565b5b90600052602060002090600502016000820160009054906101000a900473ffffffffffffffffffffffffffffffffffffffff168160000160006101000a81548173ffffffffffffffffffffffffffffffffffffffff021916908373ffffffffffffffffffffffffffffffffffffffff16021790555060018201548160010155600282015481600201556003820160009054906101000a900473ffffffffffffffffffffffffffffffffffffffff168160030160006101000a81548173ffffffffffffffffffffffffffffffffffffffff021916908373ffffffffffffffffffffffffffffffffffffffff1602179055506004820154816004015590505080806109f890611361565b915050610895565b506002805480610a1357610a126113a9565b5b6001900381819060005260206000209060050201600080820160006101000a81549073ffffffffffffffffffffffffffffffffffffffff0219169055600182016000905560028201600090556003820160006101000a81549073ffffffffffffffffffffffffffffffffffffffff021916905560048201600090555050905550565b610a9d610c90565b33816000019073ffffffffffffffffffffffffffffffffffffffff16908173ffffffffffffffffffffffffffffffffffffffff1681525050848160200181815250508381604001818152505082816060019073ffffffffffffffffffffffffffffffffffffffff16908173ffffffffffffffffffffffffffffffffffffffff168152505081816080018181525050600281908060018154018082558091505060019003906000526020600020906005020160009091909190915060008201518160000160006101000a81548173ffffffffffffffffffffffffffffffffffffffff021916908373ffffffffffffffffffffffffffffffffffffffff160217905550602082015181600101556040820151816002015560608201518160030160006101000a81548173ffffffffffffffffffffffffffffffffffffffff021916908373ffffffffffffffffffffffffffffffffffffffff1602179055506080820151816004015550505050505050565b60008060009054906101000a900473ffffffffffffffffffffffffffffffffffffffff16905090565b60008054906101000a900473ffffffffffffffffffffffffffffffffffffffff1681565b6040518060600160405280600073ffffffffffffffffffffffffffffffffffffffff16815260200160008152602001600081525090565b6040518060a00160405280600073ffffffffffffffffffffffffffffffffffffffff1681526020016000815260200160008152602001600073ffffffffffffffffffffffffffffffffffffffff168152602001600081525090565b600080fd5b6000819050919050565b610d0381610cf0565b8114610d0e57600080fd5b50565b600081359050610d2081610cfa565b92915050565b60008060408385031215610d3d57610d3c610ceb565b5b6000610d4b85828601610d11565b9250506020610d5c85828601610d11565b9150509250929050565b600081519050919050565b600082825260208201905092915050565b6000819050602082019050919050565b600073ffffffffffffffffffffffffffffffffffffffff82169050919050565b6000610dbd82610d92565b9050919050565b610dcd81610db2565b82525050565b610ddc81610cf0565b82525050565b60a082016000820151610df86000850182610dc4565b506020820151610e0b6020850182610dd3565b506040820151610e1e6040850182610dd3565b506060820151610e316060850182610dc4565b506080820151610e446080850182610dd3565b50505050565b6000610e568383610de2565b60a08301905092915050565b6000602082019050919050565b6000610e7a82610d66565b610e848185610d71565b9350610e8f83610d82565b8060005b83811015610ec0578151610ea78882610e4a565b9750610eb283610e62565b925050600181019050610e93565b5085935050505092915050565b60006020820190508181036000830152610ee78184610e6f565b905092915050565b600060208284031215610f0557610f04610ceb565b5b6000610f1384828501610d11565b91505092915050565b610f2581610db2565b8114610f3057600080fd5b50565b600081359050610f4281610f1c565b92915050565b600060208284031215610f5e57610f5d610ceb565b5b6000610f6c84828501610f33565b91505092915050565b610f7e81610db2565b82525050565b610f8d81610cf0565b82525050565b6000606082019050610fa86000830186610f75565b610fb56020830185610f84565b610fc26040830184610f84565b949350505050565b600081519050919050565b600082825260208201905092915050565b6000819050602082019050919050565b60608201600082015161100c6000850182610dc4565b50602082015161101f6020850182610dd3565b5060408201516110326040850182610dd3565b50505050565b60006110448383610ff6565b60608301905092915050565b6000602082019050919050565b600061106882610fca565b6110728185610fd5565b935061107d83610fe6565b8060005b838110156110ae5781516110958882611038565b97506110a083611050565b925050600181019050611081565b5085935050505092915050565b600060208201905081810360008301526110d5818461105d565b905092915050565b600060a0820190506110f26000830188610f75565b6110ff6020830187610f84565b61110c6040830186610f84565b6111196060830185610f75565b6111266080830184610f84565b9695505050505050565b6000806000806080858703121561114a57611149610ceb565b5b600061115887828801610d11565b945050602061116987828801610d11565b935050604061117a87828801610f33565b925050606061118b87828801610d11565b91505092959194509250565b60006020820190506111ac6000830184610f75565b92915050565b600082825260208201905092915050565b7f4d61696e2050726f76696465722043616e27742041736b000000000000000000600082015250565b60006111f96017836111b2565b9150611204826111c3565b602082019050919050565b60006020820190508181036000830152611228816111ec565b9050919050565b7f27526571756573742720696e646578206f7574206f662072616e676500000000600082015250565b6000611265601c836111b2565b91506112708261122f565b602082019050919050565b6000602082019050818103600083015261129481611258565b9050919050565b7f4e487b7100000000000000000000000000000000000000000000000000000000600052601160045260246000fd5b60006112d582610cf0565b91506112e083610cf0565b92508282039050818111156112f8576112f761129b565b5b92915050565b600061130982610cf0565b915061131483610cf0565b925082820190508082111561132c5761132b61129b565b5b92915050565b7f4e487b7100000000000000000000000000000000000000000000000000000000600052603260045260246000fd5b600061136c82610cf0565b91507fffffffffffffffffffffffffffffffffffffffffffffffffffffffffffffffff820361139e5761139d61129b565b5b600182019050919050565b7f4e487b7100000000000000000000000000000000000000000000000000000000600052603160045260246000fd5b7f274f666665722720696e646578206f7574206f662072616e6765000000000000600082015250565b600061140e601a836111b2565b9150611419826113d8565b602082019050919050565b6000602082019050818103600083015261143d81611401565b905091905056fea26469706673582212201299656b4fc1ebb43ff1dbab10501553ef4ef08c0be38456e8a9dfce6bd37a9f64736f6c63430008100033",
  "immutableReferences": {},
  "source": "// SPDX-License-Identifier: GPL-3.0\r\npragma solidity >=0.8.0 <0.9.0;\r\n// import \"truffle/console.sol\";\r\n\r\ncontract EgMarket {\r\n    struct Request {\r\n        address owner;\r\n        uint id;\r\n        uint qty;\r\n    }\r\n\r\n    struct Offer {\r\n        address owner;\r\n        uint qty;\r\n        uint price;\r\n        address recipient;\r\n        uint rec_req_id; //recipient request id\r\n    }\r\n\r\n    address public mainProvider;\r\n    Request[] public requests;\r\n    Offer[] public offers;\r\n\r\n    function setMainProvider(address _mainProvider) public {\r\n        mainProvider = _mainProvider;\r\n    }\r\n\r\n    function getMainProvider() public view returns (address) {\r\n        return mainProvider;\r\n    }\r\n\r\n    function getRequests() public view returns (Request[] memory) {\r\n        return requests;\r\n    }\r\n\r\n    function getOffers() public view returns (Offer[] memory) {\r\n        return offers;\r\n    }\r\n\r\n    function placeOffer(uint _qty, uint _price, address _recipient, uint _rec_req_id) public {\r\n        // console.log(\"In placeOffer\");\r\n        Offer memory o;\r\n        o.owner = msg.sender;\r\n        o.qty = _qty;\r\n        o.price = _price;\r\n        o.recipient = _recipient;\r\n        o.rec_req_id = _rec_req_id;\r\n        offers.push(o);\r\n        // console.log(\"Out placeOffer\");\r\n    }\r\n\r\n    function placeRequest(uint _qty, uint _id) public {\r\n        // console.log(\"In placeRequest\");\r\n        require(msg.sender != mainProvider, \"Main Provider Can't Ask\");\r\n        Request memory r;\r\n        r.owner = msg.sender;\r\n        r.qty = _qty;\r\n        r.id = _id;\r\n        requests.push(r);\r\n        // console.log(\"Out placeRequest\");\r\n    }\r\n\r\n    // remove offer, request\r\n\r\n    function removeRequest(uint index) public {\r\n        // console.log(\"In removeRequest\");\r\n        require(index < requests.length, \"'Request' index out of range\");\r\n        \r\n        for (uint i = index; i<requests.length-1; i++){\r\n            requests[i] = requests[i+1];\r\n        }\r\n        // delete requests[requests.length - 1];\r\n        requests.pop();\r\n        // console.log(\"Out removeRequest\");\r\n    }\r\n\r\n    function removeOffer(uint index) public {\r\n        // console.log(\"In removeOffer\");\r\n        require(index < offers.length, \"'Offer' index out of range\");\r\n        \r\n        for (uint i = index; i<offers.length-1; i++){\r\n            offers[i] = offers[i+1];\r\n        }\r\n        // delete offers[offers.length - 1];\r\n        offers.pop();\r\n        // console.log(\"Out removeOffer\");\r\n    }\r\n}\r\n",
  "sourcePath": "/mnt/e/Dataarea/shrutiman_20.01.2022_e/SP Instt of Tech/SEM7/BCT_oe/bctprj/trialbct/contracts/Energy_market.sol",
  "compiler": {
    "name": "solc",
    "version": "0.8.16+commit.07a7930e.Emscripten.clang"
  },
  "schemaVersion": "3.4.16",
  "updatedAt": "2023-12-07T15:14:47.004Z",
  "devdoc": {
    "kind": "dev",
    "methods": {},
    "version": 1
  },
  "userdoc": {
    "kind": "user",
    "methods": {},
    "version": 1
  }
}