{
  "contractName": "EgMarket",
  "abi": [
    {
      "inputs": [],
      "name": "mainProvider",
      "outputs": [
        {
          "internalType": "address",
          "name": "",
          "type": "address"
        }
      ],
      "stateMutability": "view",
      "type": "function"
    },
    {
      "inputs": [
        {
          "internalType": "uint256",
          "name": "",
          "type": "uint256"
        }
      ],
      "name": "offers",
      "outputs": [
        {
          "internalType": "address",
          "name": "owner",
          "type": "address"
        },
        {
          "internalType": "uint256",
          "name": "qty",
          "type": "uint256"
        },
        {
          "internalType": "uint256",
          "name": "price",
          "type": "uint256"
        }
      ],
      "stateMutability": "view",
      "type": "function"
    },
    {
      "inputs": [
        {
          "internalType": "uint256",
          "name": "",
          "type": "uint256"
        }
      ],
      "name": "requests",
      "outputs": [
        {
          "internalType": "address",
          "name": "owner",
          "type": "address"
        },
        {
          "internalType": "uint256",
          "name": "qty",
          "type": "uint256"
        }
      ],
      "stateMutability": "view",
      "type": "function"
    },
    {
      "inputs": [
        {
          "internalType": "address",
          "name": "_mainProvider",
          "type": "address"
        }
      ],
      "name": "setMainProvider",
      "outputs": [],
      "stateMutability": "nonpayable",
      "type": "function"
    },
    {
      "inputs": [],
      "name": "getMainProvider",
      "outputs": [
        {
          "internalType": "address",
          "name": "",
          "type": "address"
        }
      ],
      "stateMutability": "view",
      "type": "function"
    },
    {
      "inputs": [],
      "name": "getRequests",
      "outputs": [
        {
          "components": [
            {
              "internalType": "address",
              "name": "owner",
              "type": "address"
            },
            {
              "internalType": "uint256",
              "name": "qty",
              "type": "uint256"
            }
          ],
          "internalType": "struct EgMarket.Request[]",
          "name": "",
          "type": "tuple[]"
        }
      ],
      "stateMutability": "view",
      "type": "function"
    },
    {
      "inputs": [],
      "name": "getOffers",
      "outputs": [
        {
          "components": [
            {
              "internalType": "address",
              "name": "owner",
              "type": "address"
            },
            {
              "internalType": "uint256",
              "name": "qty",
              "type": "uint256"
            },
            {
              "internalType": "uint256",
              "name": "price",
              "type": "uint256"
            }
          ],
          "internalType": "struct EgMarket.Offer[]",
          "name": "",
          "type": "tuple[]"
        }
      ],
      "stateMutability": "view",
      "type": "function"
    },
    {
      "inputs": [
        {
          "internalType": "uint256",
          "name": "_qty",
          "type": "uint256"
        },
        {
          "internalType": "uint256",
          "name": "_price",
          "type": "uint256"
        }
      ],
      "name": "placeOffer",
      "outputs": [],
      "stateMutability": "nonpayable",
      "type": "function"
    },
    {
      "inputs": [
        {
          "internalType": "uint256",
          "name": "_qty",
          "type": "uint256"
        }
      ],
      "name": "placeRequest",
      "outputs": [],
      "stateMutability": "nonpayable",
      "type": "function"
    },
    {
      "inputs": [
        {
          "internalType": "uint256",
          "name": "index",
          "type": "uint256"
        }
      ],
      "name": "removeRequest",
      "outputs": [],
      "stateMutability": "nonpayable",
      "type": "function"
    },
    {
      "inputs": [
        {
          "internalType": "uint256",
          "name": "index",
          "type": "uint256"
        }
      ],
      "name": "removeOffer",
      "outputs": [],
      "stateMutability": "nonpayable",
      "type": "function"
    }
  ],
  "bytecode": "0x608060405234801561001057600080fd5b5061118a806100206000396000f3fe608060405234801561001057600080fd5b50600436106100a95760003560e01c80638813ce12116100715780638813ce12146101515780638a72ea6a1461016f57806395a0f9c7146101a1578063a95902b2146101bd578063c32bf7e1146101d9578063e2cf6b39146101f7576100a9565b80633ee992ee146100ae57806344786fc3146100cc57806351a1fcb3146100e8578063813ec0641461010457806381d12c5814610120575b600080fd5b6100b6610215565b6040516100c39190610c10565b60405180910390f35b6100e660048036038101906100e19190610c63565b6102de565b005b61010260048036038101906100fd9190610c63565b610477565b005b61011e60048036038101906101199190610cbc565b6105d2565b005b61013a60048036038101906101359190610c63565b610615565b604051610148929190610d07565b60405180910390f35b610159610669565b6040516101669190610e0e565b60405180910390f35b61018960048036038101906101849190610c63565b610728565b60405161019893929190610e30565b60405180910390f35b6101bb60048036038101906101b69190610c63565b610782565b005b6101d760048036038101906101d29190610e67565b61092f565b005b6101e1610a11565b6040516101ee9190610ea7565b60405180910390f35b6101ff610a3a565b60405161020c9190610ea7565b60405180910390f35b60606002805480602002602001604051908101604052809291908181526020016000905b828210156102d557838290600052602060002090600302016040518060600160405290816000820160009054906101000a900473ffffffffffffffffffffffffffffffffffffffff1673ffffffffffffffffffffffffffffffffffffffff1673ffffffffffffffffffffffffffffffffffffffff1681526020016001820154815260200160028201548152505081526020019060010190610239565b50505050905090565b6001805490508110610325576040517f08c379a000000000000000000000000000000000000000000000000000000000815260040161031c90610f1f565b60405180910390fd5b60008190505b6001808054905061033c9190610f6e565b81101561041957600180826103519190610fa2565b8154811061036257610361610fd6565b5b90600052602060002090600202016001828154811061038457610383610fd6565b5b90600052602060002090600202016000820160009054906101000a900473ffffffffffffffffffffffffffffffffffffffff168160000160006101000a81548173ffffffffffffffffffffffffffffffffffffffff021916908373ffffffffffffffffffffffffffffffffffffffff16021790555060018201548160010155905050808061041190611005565b91505061032b565b50600180548061042c5761042b61104d565b5b6001900381819060005260206000209060020201600080820160006101000a81549073ffffffffffffffffffffffffffffffffffffffff021916905560018201600090555050905550565b60008054906101000a900473ffffffffffffffffffffffffffffffffffffffff1673ffffffffffffffffffffffffffffffffffffffff163373ffffffffffffffffffffffffffffffffffffffff1603610505576040517f08c379a00000000000000000000000000000000000000000000000000000000081526004016104fc906110c8565b60405180910390fd5b61050d610a5e565b33816000019073ffffffffffffffffffffffffffffffffffffffff16908173ffffffffffffffffffffffffffffffffffffffff168152505081816020018181525050600181908060018154018082558091505060019003906000526020600020906002020160009091909190915060008201518160000160006101000a81548173ffffffffffffffffffffffffffffffffffffffff021916908373ffffffffffffffffffffffffffffffffffffffff1602179055506020820151816001015550505050565b806000806101000a81548173ffffffffffffffffffffffffffffffffffffffff021916908373ffffffffffffffffffffffffffffffffffffffff16021790555050565b6001818154811061062557600080fd5b90600052602060002090600202016000915090508060000160009054906101000a900473ffffffffffffffffffffffffffffffffffffffff16908060010154905082565b60606001805480602002602001604051908101604052809291908181526020016000905b8282101561071f57838290600052602060002090600202016040518060400160405290816000820160009054906101000a900473ffffffffffffffffffffffffffffffffffffffff1673ffffffffffffffffffffffffffffffffffffffff1673ffffffffffffffffffffffffffffffffffffffff1681526020016001820154815250508152602001906001019061068d565b50505050905090565b6002818154811061073857600080fd5b90600052602060002090600302016000915090508060000160009054906101000a900473ffffffffffffffffffffffffffffffffffffffff16908060010154908060020154905083565b60028054905081106107c9576040517f08c379a00000000000000000000000000000000000000000000000000000000081526004016107c090611134565b60405180910390fd5b60008190505b60016002805490506107e19190610f6e565b8110156108c95760026001826107f79190610fa2565b8154811061080857610807610fd6565b5b90600052602060002090600302016002828154811061082a57610829610fd6565b5b90600052602060002090600302016000820160009054906101000a900473ffffffffffffffffffffffffffffffffffffffff168160000160006101000a81548173ffffffffffffffffffffffffffffffffffffffff021916908373ffffffffffffffffffffffffffffffffffffffff160217905550600182015481600101556002820154816002015590505080806108c190611005565b9150506107cf565b5060028054806108dc576108db61104d565b5b6001900381819060005260206000209060030201600080820160006101000a81549073ffffffffffffffffffffffffffffffffffffffff0219169055600182016000905560028201600090555050905550565b610937610a8e565b33816000019073ffffffffffffffffffffffffffffffffffffffff16908173ffffffffffffffffffffffffffffffffffffffff16815250508281602001818152505081816040018181525050600281908060018154018082558091505060019003906000526020600020906003020160009091909190915060008201518160000160006101000a81548173ffffffffffffffffffffffffffffffffffffffff021916908373ffffffffffffffffffffffffffffffffffffffff16021790555060208201518160010155604082015181600201555050505050565b60008060009054906101000a900473ffffffffffffffffffffffffffffffffffffffff16905090565b60008054906101000a900473ffffffffffffffffffffffffffffffffffffffff1681565b6040518060400160405280600073ffffffffffffffffffffffffffffffffffffffff168152602001600081525090565b6040518060600160405280600073ffffffffffffffffffffffffffffffffffffffff16815260200160008152602001600081525090565b600081519050919050565b600082825260208201905092915050565b6000819050602082019050919050565b600073ffffffffffffffffffffffffffffffffffffffff82169050919050565b6000610b1c82610af1565b9050919050565b610b2c81610b11565b82525050565b6000819050919050565b610b4581610b32565b82525050565b606082016000820151610b616000850182610b23565b506020820151610b746020850182610b3c565b506040820151610b876040850182610b3c565b50505050565b6000610b998383610b4b565b60608301905092915050565b6000602082019050919050565b6000610bbd82610ac5565b610bc78185610ad0565b9350610bd283610ae1565b8060005b83811015610c03578151610bea8882610b8d565b9750610bf583610ba5565b925050600181019050610bd6565b5085935050505092915050565b60006020820190508181036000830152610c2a8184610bb2565b905092915050565b600080fd5b610c4081610b32565b8114610c4b57600080fd5b50565b600081359050610c5d81610c37565b92915050565b600060208284031215610c7957610c78610c32565b5b6000610c8784828501610c4e565b91505092915050565b610c9981610b11565b8114610ca457600080fd5b50565b600081359050610cb681610c90565b92915050565b600060208284031215610cd257610cd1610c32565b5b6000610ce084828501610ca7565b91505092915050565b610cf281610b11565b82525050565b610d0181610b32565b82525050565b6000604082019050610d1c6000830185610ce9565b610d296020830184610cf8565b9392505050565b600081519050919050565b600082825260208201905092915050565b6000819050602082019050919050565b604082016000820151610d726000850182610b23565b506020820151610d856020850182610b3c565b50505050565b6000610d978383610d5c565b60408301905092915050565b6000602082019050919050565b6000610dbb82610d30565b610dc58185610d3b565b9350610dd083610d4c565b8060005b83811015610e01578151610de88882610d8b565b9750610df383610da3565b925050600181019050610dd4565b5085935050505092915050565b60006020820190508181036000830152610e288184610db0565b905092915050565b6000606082019050610e456000830186610ce9565b610e526020830185610cf8565b610e5f6040830184610cf8565b949350505050565b60008060408385031215610e7e57610e7d610c32565b5b6000610e8c85828601610c4e565b9250506020610e9d85828601610c4e565b9150509250929050565b6000602082019050610ebc6000830184610ce9565b92915050565b600082825260208201905092915050565b7f27526571756573742720696e646578206f7574206f662072616e676500000000600082015250565b6000610f09601c83610ec2565b9150610f1482610ed3565b602082019050919050565b60006020820190508181036000830152610f3881610efc565b9050919050565b7f4e487b7100000000000000000000000000000000000000000000000000000000600052601160045260246000fd5b6000610f7982610b32565b9150610f8483610b32565b9250828203905081811115610f9c57610f9b610f3f565b5b92915050565b6000610fad82610b32565b9150610fb883610b32565b9250828201905080821115610fd057610fcf610f3f565b5b92915050565b7f4e487b7100000000000000000000000000000000000000000000000000000000600052603260045260246000fd5b600061101082610b32565b91507fffffffffffffffffffffffffffffffffffffffffffffffffffffffffffffffff820361104257611041610f3f565b5b600182019050919050565b7f4e487b7100000000000000000000000000000000000000000000000000000000600052603160045260246000fd5b7f4d61696e2050726f76696465722043616e27742041736b000000000000000000600082015250565b60006110b2601783610ec2565b91506110bd8261107c565b602082019050919050565b600060208201905081810360008301526110e1816110a5565b9050919050565b7f274f666665722720696e646578206f7574206f662072616e6765000000000000600082015250565b600061111e601a83610ec2565b9150611129826110e8565b602082019050919050565b6000602082019050818103600083015261114d81611111565b905091905056fea2646970667358221220aaecc3f96f9c8706c682982fe4c5c0dc33ef06d52dcec900390e0f16fa662a6564736f6c63430008100033",
  "immutableReferences": {},
  "source": "// SPDX-License-Identifier: GPL-3.0\r\npragma solidity >=0.8.0 <0.9.0;\r\n// import \"truffle/console.sol\";\r\n\r\ncontract EgMarket {\r\n    struct Request {\r\n        address owner;\r\n        uint qty;\r\n    }\r\n\r\n    struct Offer {\r\n        address owner;\r\n        uint qty;\r\n        uint price;\r\n    }\r\n\r\n    address public mainProvider;\r\n    Request[] public requests;\r\n    Offer[] public offers;\r\n\r\n    function setMainProvider(address _mainProvider) public {\r\n        mainProvider = _mainProvider;\r\n    }\r\n\r\n    function getMainProvider() public view returns (address) {\r\n        return mainProvider;\r\n    }\r\n\r\n    function getRequests() public view returns (Request[] memory) {\r\n        return requests;\r\n    }\r\n\r\n    function getOffers() public view returns (Offer[] memory) {\r\n        return offers;\r\n    }\r\n\r\n    function placeOffer(uint _qty, uint _price) public {\r\n        // console.log(\"In placeOffer\");\r\n        Offer memory o;\r\n        o.owner = msg.sender;\r\n        o.qty = _qty;\r\n        o.price = _price;\r\n        offers.push(o);\r\n        // console.log(\"Out placeOffer\");\r\n    }\r\n\r\n    function placeRequest(uint _qty) public {\r\n        // console.log(\"In placeRequest\");\r\n        require(msg.sender != mainProvider, \"Main Provider Can't Ask\");\r\n        Request memory r;\r\n        r.owner = msg.sender;\r\n        r.qty = _qty;\r\n        requests.push(r);\r\n        // console.log(\"Out placeRequest\");\r\n    }\r\n\r\n    // remove offer, request\r\n\r\n    function removeRequest(uint index) public {\r\n        // console.log(\"In removeRequest\");\r\n        require(index < requests.length, \"'Request' index out of range\");\r\n        \r\n        for (uint i = index; i<requests.length-1; i++){\r\n            requests[i] = requests[i+1];\r\n        }\r\n        // delete requests[requests.length - 1];\r\n        requests.pop();\r\n        // console.log(\"Out removeRequest\");\r\n    }\r\n\r\n    function removeOffer(uint index) public {\r\n        // console.log(\"In removeOffer\");\r\n        require(index < offers.length, \"'Offer' index out of range\");\r\n        \r\n        for (uint i = index; i<offers.length-1; i++){\r\n            offers[i] = offers[i+1];\r\n        }\r\n        // delete offers[offers.length - 1];\r\n        offers.pop();\r\n        // console.log(\"Out removeOffer\");\r\n    }\r\n}\r\n",
  "sourcePath": "/mnt/e/Dataarea/shrutiman_20.01.2022_e/SP Instt of Tech/SEM7/BCT_oe/bctprj/trialbct/contracts/Energy_market.sol",
  "compiler": {
    "name": "solc",
    "version": "0.8.16+commit.07a7930e.Emscripten.clang"
  },
  "schemaVersion": "3.4.16",
  "updatedAt": "2023-12-06T18:19:31.965Z",
  "devdoc": {
    "kind": "dev",
    "methods": {},
    "version": 1
  },
  "userdoc": {
    "kind": "user",
    "methods": {},
    "version": 1
  }
}