{
  "contractName": "EgMarket",
  "abi": [
    {
      "inputs": [],
      "name": "mainProvider",
      "outputs": [
        {
          "internalType": "address",
          "name": "",
          "type": "address"
        }
      ],
      "stateMutability": "view",
      "type": "function"
    },
    {
      "inputs": [
        {
          "internalType": "uint256",
          "name": "",
          "type": "uint256"
        }
      ],
      "name": "offers",
      "outputs": [
        {
          "internalType": "address",
          "name": "owner",
          "type": "address"
        },
        {
          "internalType": "uint256",
          "name": "qty",
          "type": "uint256"
        },
        {
          "internalType": "uint256",
          "name": "price",
          "type": "uint256"
        },
        {
          "internalType": "address",
          "name": "recipient",
          "type": "address"
        },
        {
          "internalType": "uint256",
          "name": "rec_req_id",
          "type": "uint256"
        },
        {
          "internalType": "bool",
          "name": "isSet",
          "type": "bool"
        }
      ],
      "stateMutability": "view",
      "type": "function"
    },
    {
      "inputs": [
        {
          "internalType": "uint256",
          "name": "",
          "type": "uint256"
        }
      ],
      "name": "requests",
      "outputs": [
        {
          "internalType": "address",
          "name": "owner",
          "type": "address"
        },
        {
          "internalType": "uint256",
          "name": "id",
          "type": "uint256"
        },
        {
          "internalType": "uint256",
          "name": "qty",
          "type": "uint256"
        }
      ],
      "stateMutability": "view",
      "type": "function"
    },
    {
      "inputs": [
        {
          "internalType": "address",
          "name": "_mainProvider",
          "type": "address"
        }
      ],
      "name": "setMainProvider",
      "outputs": [],
      "stateMutability": "nonpayable",
      "type": "function"
    },
    {
      "inputs": [
        {
          "internalType": "uint256",
          "name": "req_ind",
          "type": "uint256"
        },
        {
          "components": [
            {
              "internalType": "address",
              "name": "owner",
              "type": "address"
            },
            {
              "internalType": "uint256",
              "name": "qty",
              "type": "uint256"
            },
            {
              "internalType": "uint256",
              "name": "price",
              "type": "uint256"
            },
            {
              "internalType": "address",
              "name": "recipient",
              "type": "address"
            },
            {
              "internalType": "uint256",
              "name": "rec_req_id",
              "type": "uint256"
            },
            {
              "internalType": "bool",
              "name": "isSet",
              "type": "bool"
            }
          ],
          "internalType": "struct EgMarket.Offer",
          "name": "o",
          "type": "tuple"
        }
      ],
      "name": "setBestOffer",
      "outputs": [
        {
          "internalType": "bool",
          "name": "",
          "type": "bool"
        }
      ],
      "stateMutability": "nonpayable",
      "type": "function"
    },
    {
      "inputs": [
        {
          "internalType": "uint256",
          "name": "req_ind",
          "type": "uint256"
        }
      ],
      "name": "getBestOffer",
      "outputs": [
        {
          "components": [
            {
              "internalType": "address",
              "name": "owner",
              "type": "address"
            },
            {
              "internalType": "uint256",
              "name": "qty",
              "type": "uint256"
            },
            {
              "internalType": "uint256",
              "name": "price",
              "type": "uint256"
            },
            {
              "internalType": "address",
              "name": "recipient",
              "type": "address"
            },
            {
              "internalType": "uint256",
              "name": "rec_req_id",
              "type": "uint256"
            },
            {
              "internalType": "bool",
              "name": "isSet",
              "type": "bool"
            }
          ],
          "internalType": "struct EgMarket.Offer",
          "name": "",
          "type": "tuple"
        }
      ],
      "stateMutability": "view",
      "type": "function"
    },
    {
      "inputs": [],
      "name": "getMainProvider",
      "outputs": [
        {
          "internalType": "address",
          "name": "",
          "type": "address"
        }
      ],
      "stateMutability": "view",
      "type": "function"
    },
    {
      "inputs": [],
      "name": "getRequests",
      "outputs": [
        {
          "components": [
            {
              "internalType": "address",
              "name": "owner",
              "type": "address"
            },
            {
              "internalType": "uint256",
              "name": "id",
              "type": "uint256"
            },
            {
              "internalType": "uint256",
              "name": "qty",
              "type": "uint256"
            }
          ],
          "internalType": "struct EgMarket.Request[]",
          "name": "",
          "type": "tuple[]"
        }
      ],
      "stateMutability": "view",
      "type": "function"
    },
    {
      "inputs": [],
      "name": "getOffers",
      "outputs": [
        {
          "components": [
            {
              "internalType": "address",
              "name": "owner",
              "type": "address"
            },
            {
              "internalType": "uint256",
              "name": "qty",
              "type": "uint256"
            },
            {
              "internalType": "uint256",
              "name": "price",
              "type": "uint256"
            },
            {
              "internalType": "address",
              "name": "recipient",
              "type": "address"
            },
            {
              "internalType": "uint256",
              "name": "rec_req_id",
              "type": "uint256"
            },
            {
              "internalType": "bool",
              "name": "isSet",
              "type": "bool"
            }
          ],
          "internalType": "struct EgMarket.Offer[]",
          "name": "",
          "type": "tuple[]"
        }
      ],
      "stateMutability": "view",
      "type": "function"
    },
    {
      "inputs": [
        {
          "internalType": "uint256",
          "name": "_price",
          "type": "uint256"
        },
        {
          "internalType": "uint256",
          "name": "req_ind",
          "type": "uint256"
        }
      ],
      "name": "placeOffer",
      "outputs": [],
      "stateMutability": "nonpayable",
      "type": "function"
    },
    {
      "inputs": [
        {
          "internalType": "uint256",
          "name": "_qty",
          "type": "uint256"
        },
        {
          "internalType": "uint256",
          "name": "_id",
          "type": "uint256"
        }
      ],
      "name": "placeRequest",
      "outputs": [],
      "stateMutability": "nonpayable",
      "type": "function"
    },
    {
      "inputs": [
        {
          "internalType": "uint256",
          "name": "index",
          "type": "uint256"
        }
      ],
      "name": "removeRequest",
      "outputs": [],
      "stateMutability": "nonpayable",
      "type": "function"
    },
    {
      "inputs": [
        {
          "internalType": "uint256",
          "name": "index",
          "type": "uint256"
        }
      ],
      "name": "removeOffer",
      "outputs": [],
      "stateMutability": "nonpayable",
      "type": "function"
    }
  ],
  "bytecode": "0x608060405234801561001057600080fd5b50611d42806100206000396000f3fe608060405234801561001057600080fd5b50600436106100cf5760003560e01c80638813ce121161008c578063a95902b211610066578063a95902b214610217578063bb92fff814610233578063c32bf7e114610263578063e2cf6b3914610281576100cf565b80638813ce12146101a85780638a72ea6a146101c657806395a0f9c7146101fb576100cf565b8063179ab3cd146100d45780633ee992ee146100f057806344786fc31461010e5780635d9152601461012a578063813ec0641461015a57806381d12c5814610176575b600080fd5b6100ee60048036038101906100e991906113bc565b61029f565b005b6100f861040f565b6040516101059190611591565b60405180910390f35b610128600480360381019061012391906115b3565b610553565b005b610144600480360381019061013f91906115b3565b6106fe565b604051610151919061165b565b60405180910390f35b610174600480360381019061016f91906116a2565b610810565b005b610190600480360381019061018b91906115b3565b610853565b60405161019f939291906116ed565b60405180910390f35b6101b06108ad565b6040516101bd9190611815565b60405180910390f35b6101e060048036038101906101db91906115b3565b610976565b6040516101f296959493929190611846565b60405180910390f35b610215600480360381019061021091906115b3565b610a0f565b005b610231600480360381019061022c91906113bc565b610c9d565b005b61024d60048036038101906102489190611a04565b610ee5565b60405161025a9190611a44565b60405180910390f35b61026b61128f565b6040516102789190611a5f565b60405180910390f35b6102896112b8565b6040516102969190611a5f565b60405180910390f35b60008054906101000a900473ffffffffffffffffffffffffffffffffffffffff1673ffffffffffffffffffffffffffffffffffffffff163373ffffffffffffffffffffffffffffffffffffffff160361032d576040517f08c379a000000000000000000000000000000000000000000000000000000000815260040161032490611ad7565b60405180910390fd5b6103356112dc565b33816000019073ffffffffffffffffffffffffffffffffffffffff16908173ffffffffffffffffffffffffffffffffffffffff16815250508281604001818152505081816020018181525050600181908060018154018082558091505060019003906000526020600020906003020160009091909190915060008201518160000160006101000a81548173ffffffffffffffffffffffffffffffffffffffff021916908373ffffffffffffffffffffffffffffffffffffffff16021790555060208201518160010155604082015181600201555050505050565b60606002805480602002602001604051908101604052809291908181526020016000905b8282101561054a57838290600052602060002090600602016040518060c00160405290816000820160009054906101000a900473ffffffffffffffffffffffffffffffffffffffff1673ffffffffffffffffffffffffffffffffffffffff1673ffffffffffffffffffffffffffffffffffffffff16815260200160018201548152602001600282015481526020016003820160009054906101000a900473ffffffffffffffffffffffffffffffffffffffff1673ffffffffffffffffffffffffffffffffffffffff1673ffffffffffffffffffffffffffffffffffffffff168152602001600482015481526020016005820160009054906101000a900460ff16151515158152505081526020019060010190610433565b50505050905090565b600180549050811061059a576040517f08c379a000000000000000000000000000000000000000000000000000000000815260040161059190611b43565b60405180910390fd5b60008190505b600180805490506105b19190611b92565b81101561069857600180826105c69190611bc6565b815481106105d7576105d6611bfa565b5b9060005260206000209060030201600182815481106105f9576105f8611bfa565b5b90600052602060002090600302016000820160009054906101000a900473ffffffffffffffffffffffffffffffffffffffff168160000160006101000a81548173ffffffffffffffffffffffffffffffffffffffff021916908373ffffffffffffffffffffffffffffffffffffffff1602179055506001820154816001015560028201548160020155905050808061069090611c29565b9150506105a0565b5060018054806106ab576106aa611c71565b5b6001900381819060005260206000209060030201600080820160006101000a81549073ffffffffffffffffffffffffffffffffffffffff0219169055600182016000905560028201600090555050905550565b610706611313565b600360008381526020019081526020016000206040518060c00160405290816000820160009054906101000a900473ffffffffffffffffffffffffffffffffffffffff1673ffffffffffffffffffffffffffffffffffffffff1673ffffffffffffffffffffffffffffffffffffffff16815260200160018201548152602001600282015481526020016003820160009054906101000a900473ffffffffffffffffffffffffffffffffffffffff1673ffffffffffffffffffffffffffffffffffffffff1673ffffffffffffffffffffffffffffffffffffffff168152602001600482015481526020016005820160009054906101000a900460ff1615151515815250509050919050565b806000806101000a81548173ffffffffffffffffffffffffffffffffffffffff021916908373ffffffffffffffffffffffffffffffffffffffff16021790555050565b6001818154811061086357600080fd5b90600052602060002090600302016000915090508060000160009054906101000a900473ffffffffffffffffffffffffffffffffffffffff16908060010154908060020154905083565b60606001805480602002602001604051908101604052809291908181526020016000905b8282101561096d57838290600052602060002090600302016040518060600160405290816000820160009054906101000a900473ffffffffffffffffffffffffffffffffffffffff1673ffffffffffffffffffffffffffffffffffffffff1673ffffffffffffffffffffffffffffffffffffffff16815260200160018201548152602001600282015481525050815260200190600101906108d1565b50505050905090565b6002818154811061098657600080fd5b90600052602060002090600602016000915090508060000160009054906101000a900473ffffffffffffffffffffffffffffffffffffffff16908060010154908060020154908060030160009054906101000a900473ffffffffffffffffffffffffffffffffffffffff16908060040154908060050160009054906101000a900460ff16905086565b6002805490508110610a56576040517f08c379a0000000000000000000000000000000000000000000000000000000008152600401610a4d90611cec565b60405180910390fd5b60008190505b6001600280549050610a6e9190611b92565b811015610bf4576002600182610a849190611bc6565b81548110610a9557610a94611bfa565b5b906000526020600020906006020160028281548110610ab757610ab6611bfa565b5b90600052602060002090600602016000820160009054906101000a900473ffffffffffffffffffffffffffffffffffffffff168160000160006101000a81548173ffffffffffffffffffffffffffffffffffffffff021916908373ffffffffffffffffffffffffffffffffffffffff16021790555060018201548160010155600282015481600201556003820160009054906101000a900473ffffffffffffffffffffffffffffffffffffffff168160030160006101000a81548173ffffffffffffffffffffffffffffffffffffffff021916908373ffffffffffffffffffffffffffffffffffffffff160217905550600482015481600401556005820160009054906101000a900460ff168160050160006101000a81548160ff0219169083151502179055509050508080610bec90611c29565b915050610a5c565b506002805480610c0757610c06611c71565b5b6001900381819060005260206000209060060201600080820160006101000a81549073ffffffffffffffffffffffffffffffffffffffff0219169055600182016000905560028201600090556003820160006101000a81549073ffffffffffffffffffffffffffffffffffffffff021916905560048201600090556005820160006101000a81549060ff02191690555050905550565b600060018281548110610cb357610cb2611bfa565b5b90600052602060002090600302016040518060600160405290816000820160009054906101000a900473ffffffffffffffffffffffffffffffffffffffff1673ffffffffffffffffffffffffffffffffffffffff1673ffffffffffffffffffffffffffffffffffffffff168152602001600182015481526020016002820154815250509050610d40611313565b33816000019073ffffffffffffffffffffffffffffffffffffffff16908173ffffffffffffffffffffffffffffffffffffffff16815250508160400151816020018181525050838160400181815250508160000151816060019073ffffffffffffffffffffffffffffffffffffffff16908173ffffffffffffffffffffffffffffffffffffffff16815250508160200151816080018181525050600281908060018154018082558091505060019003906000526020600020906006020160009091909190915060008201518160000160006101000a81548173ffffffffffffffffffffffffffffffffffffffff021916908373ffffffffffffffffffffffffffffffffffffffff160217905550602082015181600101556040820151816002015560608201518160030160006101000a81548173ffffffffffffffffffffffffffffffffffffffff021916908373ffffffffffffffffffffffffffffffffffffffff1602179055506080820151816004015560a08201518160050160006101000a81548160ff0219169083151502179055505050610ede8382610ee5565b5050505050565b60006003600084815260200190815260200160002060050160009054906101000a900460ff1661102a57816003600085815260200190815260200160002060008201518160000160006101000a81548173ffffffffffffffffffffffffffffffffffffffff021916908373ffffffffffffffffffffffffffffffffffffffff160217905550602082015181600101556040820151816002015560608201518160030160006101000a81548173ffffffffffffffffffffffffffffffffffffffff021916908373ffffffffffffffffffffffffffffffffffffffff1602179055506080820151816004015560a08201518160050160006101000a81548160ff02191690831515021790555090505060016003600085815260200190815260200160002060050160006101000a81548160ff02191690831515021790555060019050611289565b816060015173ffffffffffffffffffffffffffffffffffffffff166001848154811061105957611058611bfa565b5b906000526020600020906003020160000160009054906101000a900473ffffffffffffffffffffffffffffffffffffffff1673ffffffffffffffffffffffffffffffffffffffff161415806110d757508160800151600184815481106110c2576110c1611bfa565b5b90600052602060002090600302016001015414155b8061110b57508160200151600184815481106110f6576110f5611bfa565b5b90600052602060002090600302016002015414155b156111195760009050611289565b81604001516003600085815260200190815260200160002060020154116111435760009050611289565b60006003600085815260200190815260200160002060050160006101000a81548160ff021916908315150217905550816003600085815260200190815260200160002060008201518160000160006101000a81548173ffffffffffffffffffffffffffffffffffffffff021916908373ffffffffffffffffffffffffffffffffffffffff160217905550602082015181600101556040820151816002015560608201518160030160006101000a81548173ffffffffffffffffffffffffffffffffffffffff021916908373ffffffffffffffffffffffffffffffffffffffff1602179055506080820151816004015560a08201518160050160006101000a81548160ff02191690831515021790555090505060016003600085815260200190815260200160002060050160006101000a81548160ff021916908315150217905550600190505b92915050565b60008060009054906101000a900473ffffffffffffffffffffffffffffffffffffffff16905090565b60008054906101000a900473ffffffffffffffffffffffffffffffffffffffff1681565b6040518060600160405280600073ffffffffffffffffffffffffffffffffffffffff16815260200160008152602001600081525090565b6040518060c00160405280600073ffffffffffffffffffffffffffffffffffffffff1681526020016000815260200160008152602001600073ffffffffffffffffffffffffffffffffffffffff168152602001600081526020016000151581525090565b6000604051905090565b600080fd5b6000819050919050565b61139981611386565b81146113a457600080fd5b50565b6000813590506113b681611390565b92915050565b600080604083850312156113d3576113d2611381565b5b60006113e1858286016113a7565b92505060206113f2858286016113a7565b9150509250929050565b600081519050919050565b600082825260208201905092915050565b6000819050602082019050919050565b600073ffffffffffffffffffffffffffffffffffffffff82169050919050565b600061145382611428565b9050919050565b61146381611448565b82525050565b61147281611386565b82525050565b60008115159050919050565b61148d81611478565b82525050565b60c0820160008201516114a9600085018261145a565b5060208201516114bc6020850182611469565b5060408201516114cf6040850182611469565b5060608201516114e2606085018261145a565b5060808201516114f56080850182611469565b5060a082015161150860a0850182611484565b50505050565b600061151a8383611493565b60c08301905092915050565b6000602082019050919050565b600061153e826113fc565b6115488185611407565b935061155383611418565b8060005b8381101561158457815161156b888261150e565b975061157683611526565b925050600181019050611557565b5085935050505092915050565b600060208201905081810360008301526115ab8184611533565b905092915050565b6000602082840312156115c9576115c8611381565b5b60006115d7848285016113a7565b91505092915050565b60c0820160008201516115f6600085018261145a565b5060208201516116096020850182611469565b50604082015161161c6040850182611469565b50606082015161162f606085018261145a565b5060808201516116426080850182611469565b5060a082015161165560a0850182611484565b50505050565b600060c08201905061167060008301846115e0565b92915050565b61167f81611448565b811461168a57600080fd5b50565b60008135905061169c81611676565b92915050565b6000602082840312156116b8576116b7611381565b5b60006116c68482850161168d565b91505092915050565b6116d881611448565b82525050565b6116e781611386565b82525050565b600060608201905061170260008301866116cf565b61170f60208301856116de565b61171c60408301846116de565b949350505050565b600081519050919050565b600082825260208201905092915050565b6000819050602082019050919050565b606082016000820151611766600085018261145a565b5060208201516117796020850182611469565b50604082015161178c6040850182611469565b50505050565b600061179e8383611750565b60608301905092915050565b6000602082019050919050565b60006117c282611724565b6117cc818561172f565b93506117d783611740565b8060005b838110156118085781516117ef8882611792565b97506117fa836117aa565b9250506001810190506117db565b5085935050505092915050565b6000602082019050818103600083015261182f81846117b7565b905092915050565b61184081611478565b82525050565b600060c08201905061185b60008301896116cf565b61186860208301886116de565b61187560408301876116de565b61188260608301866116cf565b61188f60808301856116de565b61189c60a0830184611837565b979650505050505050565b600080fd5b6000601f19601f8301169050919050565b7f4e487b7100000000000000000000000000000000000000000000000000000000600052604160045260246000fd5b6118f5826118ac565b810181811067ffffffffffffffff82111715611914576119136118bd565b5b80604052505050565b6000611927611377565b905061193382826118ec565b919050565b61194181611478565b811461194c57600080fd5b50565b60008135905061195e81611938565b92915050565b600060c0828403121561197a576119796118a7565b5b61198460c061191d565b905060006119948482850161168d565b60008301525060206119a8848285016113a7565b60208301525060406119bc848285016113a7565b60408301525060606119d08482850161168d565b60608301525060806119e4848285016113a7565b60808301525060a06119f88482850161194f565b60a08301525092915050565b60008060e08385031215611a1b57611a1a611381565b5b6000611a29858286016113a7565b9250506020611a3a85828601611964565b9150509250929050565b6000602082019050611a596000830184611837565b92915050565b6000602082019050611a7460008301846116cf565b92915050565b600082825260208201905092915050565b7f4d61696e2050726f76696465722043616e27742041736b000000000000000000600082015250565b6000611ac1601783611a7a565b9150611acc82611a8b565b602082019050919050565b60006020820190508181036000830152611af081611ab4565b9050919050565b7f27526571756573742720696e646578206f7574206f662072616e676500000000600082015250565b6000611b2d601c83611a7a565b9150611b3882611af7565b602082019050919050565b60006020820190508181036000830152611b5c81611b20565b9050919050565b7f4e487b7100000000000000000000000000000000000000000000000000000000600052601160045260246000fd5b6000611b9d82611386565b9150611ba883611386565b9250828203905081811115611bc057611bbf611b63565b5b92915050565b6000611bd182611386565b9150611bdc83611386565b9250828201905080821115611bf457611bf3611b63565b5b92915050565b7f4e487b7100000000000000000000000000000000000000000000000000000000600052603260045260246000fd5b6000611c3482611386565b91507fffffffffffffffffffffffffffffffffffffffffffffffffffffffffffffffff8203611c6657611c65611b63565b5b600182019050919050565b7f4e487b7100000000000000000000000000000000000000000000000000000000600052603160045260246000fd5b7f274f666665722720696e646578206f7574206f662072616e6765000000000000600082015250565b6000611cd6601a83611a7a565b9150611ce182611ca0565b602082019050919050565b60006020820190508181036000830152611d0581611cc9565b905091905056fea2646970667358221220773495e0a30a4bc627fd2d66f2251d82150751a9fbbee671f1362c4ad3e0c9f364736f6c63430008100033",
  "immutableReferences": {},
  "source": "// SPDX-License-Identifier: GPL-3.0\r\npragma solidity >=0.8.0 <0.9.0;\r\n\r\ncontract EgMarket {\r\n    struct Request {\r\n        address owner;\r\n        uint id;\r\n        uint qty;\r\n    }\r\n\r\n    struct Offer {\r\n        address owner;\r\n        uint qty;\r\n        uint price;\r\n        address recipient;\r\n        uint rec_req_id; //recipient request id\r\n        bool isSet; // to find in mapping\r\n    }\r\n\r\n    address public mainProvider;\r\n    Request[] public requests;\r\n    Offer[] public offers;\r\n    mapping(uint => Offer) best_offer;\r\n\r\n    function setMainProvider(address _mainProvider) public {\r\n        mainProvider = _mainProvider;\r\n    }\r\n\r\n    function setBestOffer(uint req_ind, Offer memory o) public returns (bool) { // validate offer then set it as best\r\n        if(!best_offer[req_ind].isSet) {\r\n            best_offer[req_ind] = o;\r\n            best_offer[req_ind].isSet = true;\r\n            return true;\r\n        }\r\n        if((requests[req_ind].owner != o.recipient) || (requests[req_ind].id != o.rec_req_id) || (requests[req_ind].qty != o.qty)) {\r\n            return false;\r\n        }\r\n\r\n        if(best_offer[req_ind].price <= o.price) {\r\n            return false;\r\n        }\r\n\r\n        best_offer[req_ind].isSet = false; // set old offer to false\r\n        best_offer[req_ind] = o;\r\n        best_offer[req_ind].isSet = true;\r\n        return true;\r\n    }\r\n\r\n    function getBestOffer(uint req_ind) public view returns ( Offer memory) {\r\n        return best_offer[req_ind];\r\n    }\r\n\r\n    \r\n    function getMainProvider() public view returns (address) {\r\n        return mainProvider;\r\n    }\r\n\r\n    function getRequests() public view returns (Request[] memory) {\r\n        return requests;\r\n    }\r\n\r\n    function getOffers() public view returns (Offer[] memory) {\r\n        return offers;\r\n    }\r\n\r\n    function placeOffer(uint _price, uint req_ind) public {\r\n        \r\n        Request memory req = requests[req_ind];\r\n        Offer memory o;\r\n        o.owner = msg.sender;\r\n        o.qty = req.qty; //_qty;\r\n        o.price = _price;\r\n        o.recipient = req.owner; //_recipient;\r\n        o.rec_req_id = req.id;//_rec_req_id;\r\n        offers.push(o);\r\n        setBestOffer(req_ind, o); \r\n        \r\n    }\r\n\r\n    function placeRequest(uint _qty, uint _id) public {\r\n        \r\n        require(msg.sender != mainProvider, \"Main Provider Can't Ask\");\r\n        Request memory r;\r\n        r.owner = msg.sender;\r\n        r.qty = _qty;\r\n        r.id = _id;\r\n        requests.push(r);\r\n        \r\n    }\r\n\r\n    // remove offer, request\r\n\r\n    function removeRequest(uint index) public {\r\n        \r\n        require(index < requests.length, \"'Request' index out of range\");\r\n        \r\n        for (uint i = index; i<requests.length-1; i++){\r\n            requests[i] = requests[i+1];\r\n        }\r\n        // delete requests[requests.length - 1];\r\n        requests.pop();\r\n        \r\n    }\r\n\r\n    function removeOffer(uint index) public {\r\n        \r\n        require(index < offers.length, \"'Offer' index out of range\");\r\n        \r\n        for (uint i = index; i<offers.length-1; i++){\r\n            offers[i] = offers[i+1];\r\n        }\r\n        // delete offers[offers.length - 1];\r\n        offers.pop();\r\n        \r\n    }\r\n}\r\n",
  "sourcePath": "/mnt/e/Dataarea/shrutiman_20.01.2022_e/SP Instt of Tech/SEM7/BCT_oe/bctprj/trialbct/contracts/Energy_market.sol",
  "compiler": {
    "name": "solc",
    "version": "0.8.16+commit.07a7930e.Emscripten.clang"
  },
  "schemaVersion": "3.4.16",
  "updatedAt": "2023-12-09T05:53:34.671Z",
  "devdoc": {
    "kind": "dev",
    "methods": {},
    "version": 1
  },
  "userdoc": {
    "kind": "user",
    "methods": {},
    "version": 1
  }
}